{
	"contracts/ERC20.sol": {
		"ERC20Basic": {
			"abi": [
				{
					"inputs": [
						{
							"internalType": "uint256",
							"name": "initialSupply",
							"type": "uint256"
						}
					],
					"stateMutability": "nonpayable",
					"type": "constructor"
				},
				{
					"anonymous": false,
					"inputs": [
						{
							"indexed": true,
							"internalType": "address",
							"name": "owner",
							"type": "address"
						},
						{
							"indexed": true,
							"internalType": "address",
							"name": "spender",
							"type": "address"
						},
						{
							"indexed": false,
							"internalType": "uint256",
							"name": "value",
							"type": "uint256"
						}
					],
					"name": "Approval",
					"type": "event"
				},
				{
					"anonymous": false,
					"inputs": [
						{
							"indexed": true,
							"internalType": "address",
							"name": "from",
							"type": "address"
						},
						{
							"indexed": true,
							"internalType": "address",
							"name": "to",
							"type": "address"
						},
						{
							"indexed": false,
							"internalType": "uint256",
							"name": "amount",
							"type": "uint256"
						}
					],
					"name": "Transfer",
					"type": "event"
				},
				{
					"inputs": [
						{
							"internalType": "address",
							"name": "owner",
							"type": "address"
						},
						{
							"internalType": "address",
							"name": "delegate",
							"type": "address"
						}
					],
					"name": "allowance",
					"outputs": [
						{
							"internalType": "uint256",
							"name": "",
							"type": "uint256"
						}
					],
					"stateMutability": "view",
					"type": "function"
				},
				{
					"inputs": [
						{
							"internalType": "address",
							"name": "delegate",
							"type": "address"
						},
						{
							"internalType": "uint256",
							"name": "numTokens",
							"type": "uint256"
						}
					],
					"name": "approve",
					"outputs": [
						{
							"internalType": "bool",
							"name": "",
							"type": "bool"
						}
					],
					"stateMutability": "nonpayable",
					"type": "function"
				},
				{
					"inputs": [],
					"name": "decimals",
					"outputs": [
						{
							"internalType": "uint8",
							"name": "",
							"type": "uint8"
						}
					],
					"stateMutability": "view",
					"type": "function"
				},
				{
					"inputs": [
						{
							"internalType": "uint256",
							"name": "newTokensAmount",
							"type": "uint256"
						}
					],
					"name": "increaseTotalSupply",
					"outputs": [],
					"stateMutability": "nonpayable",
					"type": "function"
				},
				{
					"inputs": [],
					"name": "name",
					"outputs": [
						{
							"internalType": "string",
							"name": "",
							"type": "string"
						}
					],
					"stateMutability": "view",
					"type": "function"
				},
				{
					"inputs": [],
					"name": "totalSupply",
					"outputs": [
						{
							"internalType": "uint256",
							"name": "",
							"type": "uint256"
						}
					],
					"stateMutability": "view",
					"type": "function"
				},
				{
					"inputs": [
						{
							"internalType": "address",
							"name": "recipient",
							"type": "address"
						},
						{
							"internalType": "uint256",
							"name": "numTokens",
							"type": "uint256"
						}
					],
					"name": "transfer",
					"outputs": [
						{
							"internalType": "bool",
							"name": "",
							"type": "bool"
						}
					],
					"stateMutability": "nonpayable",
					"type": "function"
				},
				{
					"inputs": [
						{
							"internalType": "address",
							"name": "owner",
							"type": "address"
						},
						{
							"internalType": "address",
							"name": "buyer",
							"type": "address"
						},
						{
							"internalType": "uint256",
							"name": "numTokens",
							"type": "uint256"
						}
					],
					"name": "transferFrom",
					"outputs": [
						{
							"internalType": "bool",
							"name": "",
							"type": "bool"
						}
					],
					"stateMutability": "nonpayable",
					"type": "function"
				},
				{
					"inputs": [
						{
							"internalType": "address",
							"name": "tokenOwner",
							"type": "address"
						}
					],
					"name": "valanceOf",
					"outputs": [
						{
							"internalType": "uint256",
							"name": "",
							"type": "uint256"
						}
					],
					"stateMutability": "view",
					"type": "function"
				}
			],
			"devdoc": {
				"kind": "dev",
				"methods": {},
				"version": 1
			},
			"evm": {
				"assembly": "    /* \"contracts/ERC20.sol\":1867:4802  contract ERC20Basic is IERC20{\r... */\n  mstore(0x40, 0x80)\n    /* \"contracts/ERC20.sol\":2482:2608  constructor (uint256 initialSupply){\r... */\n  callvalue\n  dup1\n  iszero\n  tag_1\n  jumpi\n  0x00\n  dup1\n  revert\ntag_1:\n  pop\n  mload(0x40)\n  sub(codesize, bytecodeSize)\n  dup1\n  bytecodeSize\n  dup4\n  codecopy\n  dup2\n  dup2\n  add\n  0x40\n  mstore\n  dup2\n  add\n  swap1\n  tag_2\n  swap2\n  swap1\n  tag_3\n  jump\t// in\ntag_2:\n    /* \"contracts/ERC20.sol\":2543:2556  initialSupply */\n  dup1\n    /* \"contracts/ERC20.sol\":2528:2540  totalSupply_ */\n  0x02\n    /* \"contracts/ERC20.sol\":2528:2556  totalSupply_ = initialSupply */\n  dup2\n  swap1\n  sstore\n  pop\n    /* \"contracts/ERC20.sol\":2588:2600  totalSupply_ */\n  sload(0x02)\n    /* \"contracts/ERC20.sol\":2567:2575  balances */\n  0x00\n    /* \"contracts/ERC20.sol\":2567:2587  balances[msg.sender] */\n  dup1\n    /* \"contracts/ERC20.sol\":2576:2586  msg.sender */\n  caller\n    /* \"contracts/ERC20.sol\":2567:2587  balances[msg.sender] */\n  0xffffffffffffffffffffffffffffffffffffffff\n  and\n  0xffffffffffffffffffffffffffffffffffffffff\n  and\n  dup2\n  mstore\n  0x20\n  add\n  swap1\n  dup2\n  mstore\n  0x20\n  add\n  0x00\n  keccak256\n    /* \"contracts/ERC20.sol\":2567:2600  balances[msg.sender]=totalSupply_ */\n  dup2\n  swap1\n  sstore\n  pop\n    /* \"contracts/ERC20.sol\":2482:2608  constructor (uint256 initialSupply){\r... */\n  pop\n    /* \"contracts/ERC20.sol\":1867:4802  contract ERC20Basic is IERC20{\r... */\n  jump(tag_6)\n    /* \"#utility.yul\":7:150   */\ntag_8:\n    /* \"#utility.yul\":64:69   */\n  0x00\n    /* \"#utility.yul\":95:101   */\n  dup2\n    /* \"#utility.yul\":89:102   */\n  mload\n    /* \"#utility.yul\":80:102   */\n  swap1\n  pop\n    /* \"#utility.yul\":111:144   */\n  tag_10\n    /* \"#utility.yul\":138:143   */\n  dup2\n    /* \"#utility.yul\":111:144   */\n  tag_11\n  jump\t// in\ntag_10:\n    /* \"#utility.yul\":7:150   */\n  swap3\n  swap2\n  pop\n  pop\n  jump\t// out\n    /* \"#utility.yul\":156:507   */\ntag_3:\n    /* \"#utility.yul\":226:232   */\n  0x00\n    /* \"#utility.yul\":275:277   */\n  0x20\n    /* \"#utility.yul\":263:272   */\n  dup3\n    /* \"#utility.yul\":254:261   */\n  dup5\n    /* \"#utility.yul\":250:273   */\n  sub\n    /* \"#utility.yul\":246:278   */\n  slt\n    /* \"#utility.yul\":243:362   */\n  iszero\n  tag_13\n  jumpi\n    /* \"#utility.yul\":281:360   */\n  tag_14\n  tag_15\n  jump\t// in\ntag_14:\n    /* \"#utility.yul\":243:362   */\ntag_13:\n    /* \"#utility.yul\":401:402   */\n  0x00\n    /* \"#utility.yul\":426:490   */\n  tag_16\n    /* \"#utility.yul\":482:489   */\n  dup5\n    /* \"#utility.yul\":473:479   */\n  dup3\n    /* \"#utility.yul\":462:471   */\n  dup6\n    /* \"#utility.yul\":458:480   */\n  add\n    /* \"#utility.yul\":426:490   */\n  tag_8\n  jump\t// in\ntag_16:\n    /* \"#utility.yul\":416:490   */\n  swap2\n  pop\n    /* \"#utility.yul\":372:500   */\n  pop\n    /* \"#utility.yul\":156:507   */\n  swap3\n  swap2\n  pop\n  pop\n  jump\t// out\n    /* \"#utility.yul\":594:671   */\ntag_19:\n    /* \"#utility.yul\":631:638   */\n  0x00\n    /* \"#utility.yul\":660:665   */\n  dup2\n    /* \"#utility.yul\":649:665   */\n  swap1\n  pop\n    /* \"#utility.yul\":594:671   */\n  swap2\n  swap1\n  pop\n  jump\t// out\n    /* \"#utility.yul\":800:917   */\ntag_15:\n    /* \"#utility.yul\":909:910   */\n  0x00\n    /* \"#utility.yul\":906:907   */\n  dup1\n    /* \"#utility.yul\":899:911   */\n  revert\n    /* \"#utility.yul\":923:1045   */\ntag_11:\n    /* \"#utility.yul\":996:1020   */\n  tag_25\n    /* \"#utility.yul\":1014:1019   */\n  dup2\n    /* \"#utility.yul\":996:1020   */\n  tag_19\n  jump\t// in\ntag_25:\n    /* \"#utility.yul\":989:994   */\n  dup2\n    /* \"#utility.yul\":986:1021   */\n  eq\n    /* \"#utility.yul\":976:1039   */\n  tag_26\n  jumpi\n    /* \"#utility.yul\":1035:1036   */\n  0x00\n    /* \"#utility.yul\":1032:1033   */\n  dup1\n    /* \"#utility.yul\":1025:1037   */\n  revert\n    /* \"#utility.yul\":976:1039   */\ntag_26:\n    /* \"#utility.yul\":923:1045   */\n  pop\n  jump\t// out\n    /* \"contracts/ERC20.sol\":1867:4802  contract ERC20Basic is IERC20{\r... */\ntag_6:\n  dataSize(sub_0)\n  dup1\n  dataOffset(sub_0)\n  0x00\n  codecopy\n  0x00\n  return\nstop\n\nsub_0: assembly {\n        /* \"contracts/ERC20.sol\":1867:4802  contract ERC20Basic is IERC20{\r... */\n      mstore(0x40, 0x80)\n      callvalue\n      dup1\n      iszero\n      tag_1\n      jumpi\n      0x00\n      dup1\n      revert\n    tag_1:\n      pop\n      jumpi(tag_2, lt(calldatasize, 0x04))\n      shr(0xe0, calldataload(0x00))\n      dup1\n      0x23b872dd\n      gt\n      tag_12\n      jumpi\n      dup1\n      0x23b872dd\n      eq\n      tag_7\n      jumpi\n      dup1\n      0x313ce567\n      eq\n      tag_8\n      jumpi\n      dup1\n      0x85198586\n      eq\n      tag_9\n      jumpi\n      dup1\n      0xa9059cbb\n      eq\n      tag_10\n      jumpi\n      dup1\n      0xdd62ed3e\n      eq\n      tag_11\n      jumpi\n      jump(tag_2)\n    tag_12:\n      dup1\n      0x06fdde03\n      eq\n      tag_3\n      jumpi\n      dup1\n      0x095ea7b3\n      eq\n      tag_4\n      jumpi\n      dup1\n      0x18160ddd\n      eq\n      tag_5\n      jumpi\n      dup1\n      0x1d43cc98\n      eq\n      tag_6\n      jumpi\n    tag_2:\n      0x00\n      dup1\n      revert\n        /* \"contracts/ERC20.sol\":1903:1942  string public constant name = \"ERC20AZ\" */\n    tag_3:\n      tag_13\n      tag_14\n      jump\t// in\n    tag_13:\n      mload(0x40)\n      tag_15\n      swap2\n      swap1\n      tag_16\n      jump\t// in\n    tag_15:\n      mload(0x40)\n      dup1\n      swap2\n      sub\n      swap1\n      return\n        /* \"contracts/ERC20.sol\":3859:4081  function approve(address delegate, uint256 numTokens) public override returns(bool){\r... */\n    tag_4:\n      tag_17\n      0x04\n      dup1\n      calldatasize\n      sub\n      dup2\n      add\n      swap1\n      tag_18\n      swap2\n      swap1\n      tag_19\n      jump\t// in\n    tag_18:\n      tag_20\n      jump\t// in\n    tag_17:\n      mload(0x40)\n      tag_21\n      swap2\n      swap1\n      tag_22\n      jump\t// in\n    tag_21:\n      mload(0x40)\n      dup1\n      swap2\n      sub\n      swap1\n      return\n        /* \"contracts/ERC20.sol\":2724:2822  function totalSupply() public override view returns(uint256){\r... */\n    tag_5:\n      tag_23\n      tag_24\n      jump\t// in\n    tag_23:\n      mload(0x40)\n      tag_25\n      swap2\n      swap1\n      tag_26\n      jump\t// in\n    tag_25:\n      mload(0x40)\n      dup1\n      swap2\n      sub\n      swap1\n      return\n        /* \"contracts/ERC20.sol\":2830:3058  function increaseTotalSupply(uint newTokensAmount) public {\r... */\n    tag_6:\n      tag_27\n      0x04\n      dup1\n      calldatasize\n      sub\n      dup2\n      add\n      swap1\n      tag_28\n      swap2\n      swap1\n      tag_29\n      jump\t// in\n    tag_28:\n      tag_30\n      jump\t// in\n    tag_27:\n      stop\n        /* \"contracts/ERC20.sol\":4089:4799  function transferFrom(address owner, address buyer, uint256 numTokens) public override returns(bool){\r... */\n    tag_7:\n      tag_31\n      0x04\n      dup1\n      calldatasize\n      sub\n      dup2\n      add\n      swap1\n      tag_32\n      swap2\n      swap1\n      tag_33\n      jump\t// in\n    tag_32:\n      tag_34\n      jump\t// in\n    tag_31:\n      mload(0x40)\n      tag_35\n      swap2\n      swap1\n      tag_22\n      jump\t// in\n    tag_35:\n      mload(0x40)\n      dup1\n      swap2\n      sub\n      swap1\n      return\n        /* \"contracts/ERC20.sol\":1949:1983  uint8 public constant decimals = 2 */\n    tag_8:\n      tag_36\n      tag_37\n      jump\t// in\n    tag_36:\n      mload(0x40)\n      tag_38\n      swap2\n      swap1\n      tag_39\n      jump\t// in\n    tag_38:\n      mload(0x40)\n      dup1\n      swap2\n      sub\n      swap1\n      return\n        /* \"contracts/ERC20.sol\":3066:3188  function valanceOf(address tokenOwner) public override view returns(uint256){\r... */\n    tag_9:\n      tag_40\n      0x04\n      dup1\n      calldatasize\n      sub\n      dup2\n      add\n      swap1\n      tag_41\n      swap2\n      swap1\n      tag_42\n      jump\t// in\n    tag_41:\n      tag_43\n      jump\t// in\n    tag_40:\n      mload(0x40)\n      tag_44\n      swap2\n      swap1\n      tag_26\n      jump\t// in\n    tag_44:\n      mload(0x40)\n      dup1\n      swap2\n      sub\n      swap1\n      return\n        /* \"contracts/ERC20.sol\":3408:3797  function transfer(address recipient, uint256 numTokens) public override returns(bool){\r... */\n    tag_10:\n      tag_45\n      0x04\n      dup1\n      calldatasize\n      sub\n      dup2\n      add\n      swap1\n      tag_46\n      swap2\n      swap1\n      tag_19\n      jump\t// in\n    tag_46:\n      tag_47\n      jump\t// in\n    tag_45:\n      mload(0x40)\n      tag_48\n      swap2\n      swap1\n      tag_22\n      jump\t// in\n    tag_48:\n      mload(0x40)\n      dup1\n      swap2\n      sub\n      swap1\n      return\n        /* \"contracts/ERC20.sol\":3196:3400  function allowance(address owner, address delegate) public override view returns(uint256){\r... */\n    tag_11:\n      tag_49\n      0x04\n      dup1\n      calldatasize\n      sub\n      dup2\n      add\n      swap1\n      tag_50\n      swap2\n      swap1\n      tag_51\n      jump\t// in\n    tag_50:\n      tag_52\n      jump\t// in\n    tag_49:\n      mload(0x40)\n      tag_53\n      swap2\n      swap1\n      tag_26\n      jump\t// in\n    tag_53:\n      mload(0x40)\n      dup1\n      swap2\n      sub\n      swap1\n      return\n        /* \"contracts/ERC20.sol\":1903:1942  string public constant name = \"ERC20AZ\" */\n    tag_14:\n      mload(0x40)\n      dup1\n      0x40\n      add\n      0x40\n      mstore\n      dup1\n      0x07\n      dup2\n      mstore\n      0x20\n      add\n      0x4552433230415a00000000000000000000000000000000000000000000000000\n      dup2\n      mstore\n      pop\n      dup2\n      jump\t// out\n        /* \"contracts/ERC20.sol\":3859:4081  function approve(address delegate, uint256 numTokens) public override returns(bool){\r... */\n    tag_20:\n        /* \"contracts/ERC20.sol\":3937:3941  bool */\n      0x00\n        /* \"contracts/ERC20.sol\":3985:3994  numTokens */\n      dup2\n        /* \"contracts/ERC20.sol\":3953:3960  allowed */\n      0x01\n        /* \"contracts/ERC20.sol\":3953:3972  allowed[msg.sender] */\n      0x00\n        /* \"contracts/ERC20.sol\":3961:3971  msg.sender */\n      caller\n        /* \"contracts/ERC20.sol\":3953:3972  allowed[msg.sender] */\n      0xffffffffffffffffffffffffffffffffffffffff\n      and\n      0xffffffffffffffffffffffffffffffffffffffff\n      and\n      dup2\n      mstore\n      0x20\n      add\n      swap1\n      dup2\n      mstore\n      0x20\n      add\n      0x00\n      keccak256\n        /* \"contracts/ERC20.sol\":3953:3982  allowed[msg.sender][delegate] */\n      0x00\n        /* \"contracts/ERC20.sol\":3973:3981  delegate */\n      dup6\n        /* \"contracts/ERC20.sol\":3953:3982  allowed[msg.sender][delegate] */\n      0xffffffffffffffffffffffffffffffffffffffff\n      and\n      0xffffffffffffffffffffffffffffffffffffffff\n      and\n      dup2\n      mstore\n      0x20\n      add\n      swap1\n      dup2\n      mstore\n      0x20\n      add\n      0x00\n      keccak256\n        /* \"contracts/ERC20.sol\":3953:3994  allowed[msg.sender][delegate] = numTokens */\n      dup2\n      swap1\n      sstore\n      pop\n        /* \"contracts/ERC20.sol\":4031:4039  delegate */\n      dup3\n        /* \"contracts/ERC20.sol\":4010:4051  Approval(msg.sender, delegate, numTokens) */\n      0xffffffffffffffffffffffffffffffffffffffff\n      and\n        /* \"contracts/ERC20.sol\":4019:4029  msg.sender */\n      caller\n        /* \"contracts/ERC20.sol\":4010:4051  Approval(msg.sender, delegate, numTokens) */\n      0xffffffffffffffffffffffffffffffffffffffff\n      and\n      0x8c5be1e5ebec7d5bd14f71427d1e84f3dd0314c0f7b2291e5b200ac8c7c3b925\n        /* \"contracts/ERC20.sol\":4041:4050  numTokens */\n      dup5\n        /* \"contracts/ERC20.sol\":4010:4051  Approval(msg.sender, delegate, numTokens) */\n      mload(0x40)\n      tag_55\n      swap2\n      swap1\n      tag_26\n      jump\t// in\n    tag_55:\n      mload(0x40)\n      dup1\n      swap2\n      sub\n      swap1\n      log3\n        /* \"contracts/ERC20.sol\":4069:4073  true */\n      0x01\n        /* \"contracts/ERC20.sol\":4062:4073  return true */\n      swap1\n      pop\n        /* \"contracts/ERC20.sol\":3859:4081  function approve(address delegate, uint256 numTokens) public override returns(bool){\r... */\n      swap3\n      swap2\n      pop\n      pop\n      jump\t// out\n        /* \"contracts/ERC20.sol\":2724:2822  function totalSupply() public override view returns(uint256){\r... */\n    tag_24:\n        /* \"contracts/ERC20.sol\":2776:2783  uint256 */\n      0x00\n        /* \"contracts/ERC20.sol\":2802:2814  totalSupply_ */\n      sload(0x02)\n        /* \"contracts/ERC20.sol\":2795:2814  return totalSupply_ */\n      swap1\n      pop\n        /* \"contracts/ERC20.sol\":2724:2822  function totalSupply() public override view returns(uint256){\r... */\n      swap1\n      jump\t// out\n        /* \"contracts/ERC20.sol\":2830:3058  function increaseTotalSupply(uint newTokensAmount) public {\r... */\n    tag_30:\n        /* \"contracts/ERC20.sol\":2915:2930  newTokensAmount */\n      dup1\n        /* \"contracts/ERC20.sol\":2899:2911  totalSupply_ */\n      0x02\n      0x00\n        /* \"contracts/ERC20.sol\":2899:2930  totalSupply_ += newTokensAmount */\n      dup3\n      dup3\n      sload\n      tag_58\n      swap2\n      swap1\n      tag_59\n      jump\t// in\n    tag_58:\n      swap3\n      pop\n      pop\n      dup2\n      swap1\n      sstore\n      pop\n        /* \"contracts/ERC20.sol\":2965:2980  newTokensAmount */\n      dup1\n        /* \"contracts/ERC20.sol\":2941:2949  balances */\n      0x00\n        /* \"contracts/ERC20.sol\":2941:2961  balances[msg.sender] */\n      dup1\n        /* \"contracts/ERC20.sol\":2950:2960  msg.sender */\n      caller\n        /* \"contracts/ERC20.sol\":2941:2961  balances[msg.sender] */\n      0xffffffffffffffffffffffffffffffffffffffff\n      and\n      0xffffffffffffffffffffffffffffffffffffffff\n      and\n      dup2\n      mstore\n      0x20\n      add\n      swap1\n      dup2\n      mstore\n      0x20\n      add\n      0x00\n      keccak256\n      0x00\n        /* \"contracts/ERC20.sol\":2941:2980  balances[msg.sender] += newTokensAmount */\n      dup3\n      dup3\n      sload\n      tag_60\n      swap2\n      swap1\n      tag_59\n      jump\t// in\n    tag_60:\n      swap3\n      pop\n      pop\n      dup2\n      swap1\n      sstore\n      pop\n        /* \"contracts/ERC20.sol\":2830:3058  function increaseTotalSupply(uint newTokensAmount) public {\r... */\n      pop\n      jump\t// out\n        /* \"contracts/ERC20.sol\":4089:4799  function transferFrom(address owner, address buyer, uint256 numTokens) public override returns(bool){\r... */\n    tag_34:\n        /* \"contracts/ERC20.sol\":4184:4188  bool */\n      0x00\n        /* \"contracts/ERC20.sol\":4226:4235  numTokens */\n      dup2\n        /* \"contracts/ERC20.sol\":4208:4216  balances */\n      0x00\n        /* \"contracts/ERC20.sol\":4208:4223  balances[owner] */\n      dup1\n        /* \"contracts/ERC20.sol\":4217:4222  owner */\n      dup7\n        /* \"contracts/ERC20.sol\":4208:4223  balances[owner] */\n      0xffffffffffffffffffffffffffffffffffffffff\n      and\n      0xffffffffffffffffffffffffffffffffffffffff\n      and\n      dup2\n      mstore\n      0x20\n      add\n      swap1\n      dup2\n      mstore\n      0x20\n      add\n      0x00\n      keccak256\n      sload\n        /* \"contracts/ERC20.sol\":4208:4235  balances[owner] > numTokens */\n      gt\n        /* \"contracts/ERC20.sol\":4200:4267  require(balances[owner] > numTokens, \"No dispones de esa cantidad\") */\n      tag_62\n      jumpi\n      mload(0x40)\n      0x08c379a000000000000000000000000000000000000000000000000000000000\n      dup2\n      mstore\n      0x04\n      add\n      tag_63\n      swap1\n      tag_64\n      jump\t// in\n    tag_63:\n      mload(0x40)\n      dup1\n      swap2\n      sub\n      swap1\n      revert\n    tag_62:\n        /* \"contracts/ERC20.sol\":4299:4306  allowed */\n      0x01\n        /* \"contracts/ERC20.sol\":4299:4313  allowed[owner] */\n      0x00\n        /* \"contracts/ERC20.sol\":4307:4312  owner */\n      dup6\n        /* \"contracts/ERC20.sol\":4299:4313  allowed[owner] */\n      0xffffffffffffffffffffffffffffffffffffffff\n      and\n      0xffffffffffffffffffffffffffffffffffffffff\n      and\n      dup2\n      mstore\n      0x20\n      add\n      swap1\n      dup2\n      mstore\n      0x20\n      add\n      0x00\n      keccak256\n        /* \"contracts/ERC20.sol\":4299:4325  allowed[owner][msg.sender] */\n      0x00\n        /* \"contracts/ERC20.sol\":4314:4324  msg.sender */\n      caller\n        /* \"contracts/ERC20.sol\":4299:4325  allowed[owner][msg.sender] */\n      0xffffffffffffffffffffffffffffffffffffffff\n      and\n      0xffffffffffffffffffffffffffffffffffffffff\n      and\n      dup2\n      mstore\n      0x20\n      add\n      swap1\n      dup2\n      mstore\n      0x20\n      add\n      0x00\n      keccak256\n      sload\n        /* \"contracts/ERC20.sol\":4286:4295  numTokens */\n      dup3\n        /* \"contracts/ERC20.sol\":4286:4325  numTokens <= allowed[owner][msg.sender] */\n      gt\n      iszero\n        /* \"contracts/ERC20.sol\":4278:4361  require(numTokens <= allowed[owner][msg.sender], \"No tienes asignada esa cantidad\") */\n      tag_65\n      jumpi\n      mload(0x40)\n      0x08c379a000000000000000000000000000000000000000000000000000000000\n      dup2\n      mstore\n      0x04\n      add\n      tag_66\n      swap1\n      tag_67\n      jump\t// in\n    tag_66:\n      mload(0x40)\n      dup1\n      swap2\n      sub\n      swap1\n      revert\n    tag_65:\n        /* \"contracts/ERC20.sol\":4390:4420  balances[owner].sub(numTokens) */\n      tag_68\n        /* \"contracts/ERC20.sol\":4410:4419  numTokens */\n      dup3\n        /* \"contracts/ERC20.sol\":4390:4398  balances */\n      0x00\n        /* \"contracts/ERC20.sol\":4390:4405  balances[owner] */\n      dup1\n        /* \"contracts/ERC20.sol\":4399:4404  owner */\n      dup8\n        /* \"contracts/ERC20.sol\":4390:4405  balances[owner] */\n      0xffffffffffffffffffffffffffffffffffffffff\n      and\n      0xffffffffffffffffffffffffffffffffffffffff\n      and\n      dup2\n      mstore\n      0x20\n      add\n      swap1\n      dup2\n      mstore\n      0x20\n      add\n      0x00\n      keccak256\n      sload\n        /* \"contracts/ERC20.sol\":4390:4409  balances[owner].sub */\n      tag_69\n      swap1\n        /* \"contracts/ERC20.sol\":4390:4420  balances[owner].sub(numTokens) */\n      swap2\n      swap1\n      0xffffffff\n      and\n      jump\t// in\n    tag_68:\n        /* \"contracts/ERC20.sol\":4372:4380  balances */\n      0x00\n        /* \"contracts/ERC20.sol\":4372:4387  balances[owner] */\n      dup1\n        /* \"contracts/ERC20.sol\":4381:4386  owner */\n      dup7\n        /* \"contracts/ERC20.sol\":4372:4387  balances[owner] */\n      0xffffffffffffffffffffffffffffffffffffffff\n      and\n      0xffffffffffffffffffffffffffffffffffffffff\n      and\n      dup2\n      mstore\n      0x20\n      add\n      swap1\n      dup2\n      mstore\n      0x20\n      add\n      0x00\n      keccak256\n        /* \"contracts/ERC20.sol\":4372:4420  balances[owner] = balances[owner].sub(numTokens) */\n      dup2\n      swap1\n      sstore\n      pop\n        /* \"contracts/ERC20.sol\":4460:4501  allowed[owner][msg.sender].sub(numTokens) */\n      tag_70\n        /* \"contracts/ERC20.sol\":4491:4500  numTokens */\n      dup3\n        /* \"contracts/ERC20.sol\":4460:4467  allowed */\n      0x01\n        /* \"contracts/ERC20.sol\":4460:4474  allowed[owner] */\n      0x00\n        /* \"contracts/ERC20.sol\":4468:4473  owner */\n      dup8\n        /* \"contracts/ERC20.sol\":4460:4474  allowed[owner] */\n      0xffffffffffffffffffffffffffffffffffffffff\n      and\n      0xffffffffffffffffffffffffffffffffffffffff\n      and\n      dup2\n      mstore\n      0x20\n      add\n      swap1\n      dup2\n      mstore\n      0x20\n      add\n      0x00\n      keccak256\n        /* \"contracts/ERC20.sol\":4460:4486  allowed[owner][msg.sender] */\n      0x00\n        /* \"contracts/ERC20.sol\":4475:4485  msg.sender */\n      caller\n        /* \"contracts/ERC20.sol\":4460:4486  allowed[owner][msg.sender] */\n      0xffffffffffffffffffffffffffffffffffffffff\n      and\n      0xffffffffffffffffffffffffffffffffffffffff\n      and\n      dup2\n      mstore\n      0x20\n      add\n      swap1\n      dup2\n      mstore\n      0x20\n      add\n      0x00\n      keccak256\n      sload\n        /* \"contracts/ERC20.sol\":4460:4490  allowed[owner][msg.sender].sub */\n      tag_69\n      swap1\n        /* \"contracts/ERC20.sol\":4460:4501  allowed[owner][msg.sender].sub(numTokens) */\n      swap2\n      swap1\n      0xffffffff\n      and\n      jump\t// in\n    tag_70:\n        /* \"contracts/ERC20.sol\":4431:4438  allowed */\n      0x01\n        /* \"contracts/ERC20.sol\":4431:4445  allowed[owner] */\n      0x00\n        /* \"contracts/ERC20.sol\":4439:4444  owner */\n      dup7\n        /* \"contracts/ERC20.sol\":4431:4445  allowed[owner] */\n      0xffffffffffffffffffffffffffffffffffffffff\n      and\n      0xffffffffffffffffffffffffffffffffffffffff\n      and\n      dup2\n      mstore\n      0x20\n      add\n      swap1\n      dup2\n      mstore\n      0x20\n      add\n      0x00\n      keccak256\n        /* \"contracts/ERC20.sol\":4431:4457  allowed[owner][msg.sender] */\n      0x00\n        /* \"contracts/ERC20.sol\":4446:4456  msg.sender */\n      caller\n        /* \"contracts/ERC20.sol\":4431:4457  allowed[owner][msg.sender] */\n      0xffffffffffffffffffffffffffffffffffffffff\n      and\n      0xffffffffffffffffffffffffffffffffffffffff\n      and\n      dup2\n      mstore\n      0x20\n      add\n      swap1\n      dup2\n      mstore\n      0x20\n      add\n      0x00\n      keccak256\n        /* \"contracts/ERC20.sol\":4431:4501  allowed[owner][msg.sender] = allowed[owner][msg.sender].sub(numTokens) */\n      dup2\n      swap1\n      sstore\n      pop\n        /* \"contracts/ERC20.sol\":4530:4560  balances[buyer].add(numTokens) */\n      tag_71\n        /* \"contracts/ERC20.sol\":4550:4559  numTokens */\n      dup3\n        /* \"contracts/ERC20.sol\":4530:4538  balances */\n      0x00\n        /* \"contracts/ERC20.sol\":4530:4545  balances[buyer] */\n      dup1\n        /* \"contracts/ERC20.sol\":4539:4544  buyer */\n      dup7\n        /* \"contracts/ERC20.sol\":4530:4545  balances[buyer] */\n      0xffffffffffffffffffffffffffffffffffffffff\n      and\n      0xffffffffffffffffffffffffffffffffffffffff\n      and\n      dup2\n      mstore\n      0x20\n      add\n      swap1\n      dup2\n      mstore\n      0x20\n      add\n      0x00\n      keccak256\n      sload\n        /* \"contracts/ERC20.sol\":4530:4549  balances[buyer].add */\n      tag_72\n      swap1\n        /* \"contracts/ERC20.sol\":4530:4560  balances[buyer].add(numTokens) */\n      swap2\n      swap1\n      0xffffffff\n      and\n      jump\t// in\n    tag_71:\n        /* \"contracts/ERC20.sol\":4512:4520  balances */\n      0x00\n        /* \"contracts/ERC20.sol\":4512:4527  balances[buyer] */\n      dup1\n        /* \"contracts/ERC20.sol\":4521:4526  buyer */\n      dup6\n        /* \"contracts/ERC20.sol\":4512:4527  balances[buyer] */\n      0xffffffffffffffffffffffffffffffffffffffff\n      and\n      0xffffffffffffffffffffffffffffffffffffffff\n      and\n      dup2\n      mstore\n      0x20\n      add\n      swap1\n      dup2\n      mstore\n      0x20\n      add\n      0x00\n      keccak256\n        /* \"contracts/ERC20.sol\":4512:4560  balances[buyer] = balances[buyer].add(numTokens) */\n      dup2\n      swap1\n      sstore\n      pop\n        /* \"contracts/ERC20.sol\":4592:4597  buyer */\n      dup3\n        /* \"contracts/ERC20.sol\":4576:4609  Transfer(owner, buyer, numTokens) */\n      0xffffffffffffffffffffffffffffffffffffffff\n      and\n        /* \"contracts/ERC20.sol\":4585:4590  owner */\n      dup5\n        /* \"contracts/ERC20.sol\":4576:4609  Transfer(owner, buyer, numTokens) */\n      0xffffffffffffffffffffffffffffffffffffffff\n      and\n      0xddf252ad1be2c89b69c2b068fc378daa952ba7f163c4a11628f55a4df523b3ef\n        /* \"contracts/ERC20.sol\":4599:4608  numTokens */\n      dup5\n        /* \"contracts/ERC20.sol\":4576:4609  Transfer(owner, buyer, numTokens) */\n      mload(0x40)\n      tag_73\n      swap2\n      swap1\n      tag_26\n      jump\t// in\n    tag_73:\n      mload(0x40)\n      dup1\n      swap2\n      sub\n      swap1\n      log3\n        /* \"contracts/ERC20.sol\":4787:4791  true */\n      0x01\n        /* \"contracts/ERC20.sol\":4780:4791  return true */\n      swap1\n      pop\n        /* \"contracts/ERC20.sol\":4089:4799  function transferFrom(address owner, address buyer, uint256 numTokens) public override returns(bool){\r... */\n      swap4\n      swap3\n      pop\n      pop\n      pop\n      jump\t// out\n        /* \"contracts/ERC20.sol\":1949:1983  uint8 public constant decimals = 2 */\n    tag_37:\n        /* \"contracts/ERC20.sol\":1982:1983  2 */\n      0x02\n        /* \"contracts/ERC20.sol\":1949:1983  uint8 public constant decimals = 2 */\n      dup2\n      jump\t// out\n        /* \"contracts/ERC20.sol\":3066:3188  function valanceOf(address tokenOwner) public override view returns(uint256){\r... */\n    tag_43:\n        /* \"contracts/ERC20.sol\":3134:3141  uint256 */\n      0x00\n        /* \"contracts/ERC20.sol\":3160:3168  balances */\n      dup1\n        /* \"contracts/ERC20.sol\":3160:3180  balances[tokenOwner] */\n      0x00\n        /* \"contracts/ERC20.sol\":3169:3179  tokenOwner */\n      dup4\n        /* \"contracts/ERC20.sol\":3160:3180  balances[tokenOwner] */\n      0xffffffffffffffffffffffffffffffffffffffff\n      and\n      0xffffffffffffffffffffffffffffffffffffffff\n      and\n      dup2\n      mstore\n      0x20\n      add\n      swap1\n      dup2\n      mstore\n      0x20\n      add\n      0x00\n      keccak256\n      sload\n        /* \"contracts/ERC20.sol\":3153:3180  return balances[tokenOwner] */\n      swap1\n      pop\n        /* \"contracts/ERC20.sol\":3066:3188  function valanceOf(address tokenOwner) public override view returns(uint256){\r... */\n      swap2\n      swap1\n      pop\n      jump\t// out\n        /* \"contracts/ERC20.sol\":3408:3797  function transfer(address recipient, uint256 numTokens) public override returns(bool){\r... */\n    tag_47:\n        /* \"contracts/ERC20.sol\":3488:3492  bool */\n      0x00\n        /* \"contracts/ERC20.sol\":3526:3534  balances */\n      dup1\n        /* \"contracts/ERC20.sol\":3526:3546  balances[msg.sender] */\n      0x00\n        /* \"contracts/ERC20.sol\":3535:3545  msg.sender */\n      caller\n        /* \"contracts/ERC20.sol\":3526:3546  balances[msg.sender] */\n      0xffffffffffffffffffffffffffffffffffffffff\n      and\n      0xffffffffffffffffffffffffffffffffffffffff\n      and\n      dup2\n      mstore\n      0x20\n      add\n      swap1\n      dup2\n      mstore\n      0x20\n      add\n      0x00\n      keccak256\n      sload\n        /* \"contracts/ERC20.sol\":3513:3522  numTokens */\n      dup3\n        /* \"contracts/ERC20.sol\":3513:3546  numTokens <= balances[msg.sender] */\n      gt\n      iszero\n        /* \"contracts/ERC20.sol\":3504:3573  require (numTokens <= balances[msg.sender], \"No tienes esa cantidad\") */\n      tag_76\n      jumpi\n      mload(0x40)\n      0x08c379a000000000000000000000000000000000000000000000000000000000\n      dup2\n      mstore\n      0x04\n      add\n      tag_77\n      swap1\n      tag_78\n      jump\t// in\n    tag_77:\n      mload(0x40)\n      dup1\n      swap2\n      sub\n      swap1\n      revert\n    tag_76:\n        /* \"contracts/ERC20.sol\":3607:3642  balances[msg.sender].sub(numTokens) */\n      tag_79\n        /* \"contracts/ERC20.sol\":3632:3641  numTokens */\n      dup3\n        /* \"contracts/ERC20.sol\":3607:3615  balances */\n      0x00\n        /* \"contracts/ERC20.sol\":3607:3627  balances[msg.sender] */\n      dup1\n        /* \"contracts/ERC20.sol\":3616:3626  msg.sender */\n      caller\n        /* \"contracts/ERC20.sol\":3607:3627  balances[msg.sender] */\n      0xffffffffffffffffffffffffffffffffffffffff\n      and\n      0xffffffffffffffffffffffffffffffffffffffff\n      and\n      dup2\n      mstore\n      0x20\n      add\n      swap1\n      dup2\n      mstore\n      0x20\n      add\n      0x00\n      keccak256\n      sload\n        /* \"contracts/ERC20.sol\":3607:3631  balances[msg.sender].sub */\n      tag_69\n      swap1\n        /* \"contracts/ERC20.sol\":3607:3642  balances[msg.sender].sub(numTokens) */\n      swap2\n      swap1\n      0xffffffff\n      and\n      jump\t// in\n    tag_79:\n        /* \"contracts/ERC20.sol\":3584:3592  balances */\n      0x00\n        /* \"contracts/ERC20.sol\":3584:3604  balances[msg.sender] */\n      dup1\n        /* \"contracts/ERC20.sol\":3593:3603  msg.sender */\n      caller\n        /* \"contracts/ERC20.sol\":3584:3604  balances[msg.sender] */\n      0xffffffffffffffffffffffffffffffffffffffff\n      and\n      0xffffffffffffffffffffffffffffffffffffffff\n      and\n      dup2\n      mstore\n      0x20\n      add\n      swap1\n      dup2\n      mstore\n      0x20\n      add\n      0x00\n      keccak256\n        /* \"contracts/ERC20.sol\":3584:3642  balances[msg.sender] = balances[msg.sender].sub(numTokens) */\n      dup2\n      swap1\n      sstore\n      pop\n        /* \"contracts/ERC20.sol\":3675:3709  balances[recipient].add(numTokens) */\n      tag_80\n        /* \"contracts/ERC20.sol\":3699:3708  numTokens */\n      dup3\n        /* \"contracts/ERC20.sol\":3675:3683  balances */\n      0x00\n        /* \"contracts/ERC20.sol\":3675:3694  balances[recipient] */\n      dup1\n        /* \"contracts/ERC20.sol\":3684:3693  recipient */\n      dup7\n        /* \"contracts/ERC20.sol\":3675:3694  balances[recipient] */\n      0xffffffffffffffffffffffffffffffffffffffff\n      and\n      0xffffffffffffffffffffffffffffffffffffffff\n      and\n      dup2\n      mstore\n      0x20\n      add\n      swap1\n      dup2\n      mstore\n      0x20\n      add\n      0x00\n      keccak256\n      sload\n        /* \"contracts/ERC20.sol\":3675:3698  balances[recipient].add */\n      tag_72\n      swap1\n        /* \"contracts/ERC20.sol\":3675:3709  balances[recipient].add(numTokens) */\n      swap2\n      swap1\n      0xffffffff\n      and\n      jump\t// in\n    tag_80:\n        /* \"contracts/ERC20.sol\":3653:3661  balances */\n      0x00\n        /* \"contracts/ERC20.sol\":3653:3672  balances[recipient] */\n      dup1\n        /* \"contracts/ERC20.sol\":3662:3671  recipient */\n      dup6\n        /* \"contracts/ERC20.sol\":3653:3672  balances[recipient] */\n      0xffffffffffffffffffffffffffffffffffffffff\n      and\n      0xffffffffffffffffffffffffffffffffffffffff\n      and\n      dup2\n      mstore\n      0x20\n      add\n      swap1\n      dup2\n      mstore\n      0x20\n      add\n      0x00\n      keccak256\n        /* \"contracts/ERC20.sol\":3653:3709  balances[recipient] = balances[recipient].add(numTokens) */\n      dup2\n      swap1\n      sstore\n      pop\n        /* \"contracts/ERC20.sol\":3746:3755  recipient */\n      dup3\n        /* \"contracts/ERC20.sol\":3725:3767  Transfer(msg.sender, recipient, numTokens) */\n      0xffffffffffffffffffffffffffffffffffffffff\n      and\n        /* \"contracts/ERC20.sol\":3734:3744  msg.sender */\n      caller\n        /* \"contracts/ERC20.sol\":3725:3767  Transfer(msg.sender, recipient, numTokens) */\n      0xffffffffffffffffffffffffffffffffffffffff\n      and\n      0xddf252ad1be2c89b69c2b068fc378daa952ba7f163c4a11628f55a4df523b3ef\n        /* \"contracts/ERC20.sol\":3757:3766  numTokens */\n      dup5\n        /* \"contracts/ERC20.sol\":3725:3767  Transfer(msg.sender, recipient, numTokens) */\n      mload(0x40)\n      tag_81\n      swap2\n      swap1\n      tag_26\n      jump\t// in\n    tag_81:\n      mload(0x40)\n      dup1\n      swap2\n      sub\n      swap1\n      log3\n        /* \"contracts/ERC20.sol\":3785:3789  true */\n      0x01\n        /* \"contracts/ERC20.sol\":3778:3789  return true */\n      swap1\n      pop\n        /* \"contracts/ERC20.sol\":3408:3797  function transfer(address recipient, uint256 numTokens) public override returns(bool){\r... */\n      swap3\n      swap2\n      pop\n      pop\n      jump\t// out\n        /* \"contracts/ERC20.sol\":3196:3400  function allowance(address owner, address delegate) public override view returns(uint256){\r... */\n    tag_52:\n        /* \"contracts/ERC20.sol\":3277:3284  uint256 */\n      0x00\n        /* \"contracts/ERC20.sol\":3303:3310  allowed */\n      0x01\n        /* \"contracts/ERC20.sol\":3303:3317  allowed[owner] */\n      0x00\n        /* \"contracts/ERC20.sol\":3311:3316  owner */\n      dup5\n        /* \"contracts/ERC20.sol\":3303:3317  allowed[owner] */\n      0xffffffffffffffffffffffffffffffffffffffff\n      and\n      0xffffffffffffffffffffffffffffffffffffffff\n      and\n      dup2\n      mstore\n      0x20\n      add\n      swap1\n      dup2\n      mstore\n      0x20\n      add\n      0x00\n      keccak256\n        /* \"contracts/ERC20.sol\":3303:3327  allowed[owner][delegate] */\n      0x00\n        /* \"contracts/ERC20.sol\":3318:3326  delegate */\n      dup4\n        /* \"contracts/ERC20.sol\":3303:3327  allowed[owner][delegate] */\n      0xffffffffffffffffffffffffffffffffffffffff\n      and\n      0xffffffffffffffffffffffffffffffffffffffff\n      and\n      dup2\n      mstore\n      0x20\n      add\n      swap1\n      dup2\n      mstore\n      0x20\n      add\n      0x00\n      keccak256\n      sload\n        /* \"contracts/ERC20.sol\":3296:3327  return allowed[owner][delegate] */\n      swap1\n      pop\n        /* \"contracts/ERC20.sol\":3196:3400  function allowance(address owner, address delegate) public override view returns(uint256){\r... */\n      swap3\n      swap2\n      pop\n      pop\n      jump\t// out\n        /* \"contracts/SafeMath.sol\":221:340  function sub(uint256 a, uint256 b) internal pure returns (uint256) {\r... */\n    tag_69:\n        /* \"contracts/SafeMath.sol\":279:286  uint256 */\n      0x00\n        /* \"contracts/SafeMath.sol\":309:310  a */\n      dup3\n        /* \"contracts/SafeMath.sol\":304:305  b */\n      dup3\n        /* \"contracts/SafeMath.sol\":304:310  b <= a */\n      gt\n      iszero\n        /* \"contracts/SafeMath.sol\":297:311  assert(b <= a) */\n      tag_84\n      jumpi\n      tag_85\n      tag_86\n      jump\t// in\n    tag_85:\n    tag_84:\n        /* \"contracts/SafeMath.sol\":331:332  b */\n      dup2\n        /* \"contracts/SafeMath.sol\":327:328  a */\n      dup4\n        /* \"contracts/SafeMath.sol\":327:332  a - b */\n      tag_87\n      swap2\n      swap1\n      tag_88\n      jump\t// in\n    tag_87:\n        /* \"contracts/SafeMath.sol\":320:332  return a - b */\n      swap1\n      pop\n        /* \"contracts/SafeMath.sol\":221:340  function sub(uint256 a, uint256 b) internal pure returns (uint256) {\r... */\n      swap3\n      swap2\n      pop\n      pop\n      jump\t// out\n        /* \"contracts/SafeMath.sol\":366:507  function add(uint256 a, uint256 b) internal pure returns (uint256) {\r... */\n    tag_72:\n        /* \"contracts/SafeMath.sol\":424:431  uint256 */\n      0x00\n        /* \"contracts/SafeMath.sol\":442:451  uint256 c */\n      dup1\n        /* \"contracts/SafeMath.sol\":458:459  b */\n      dup3\n        /* \"contracts/SafeMath.sol\":454:455  a */\n      dup5\n        /* \"contracts/SafeMath.sol\":454:459  a + b */\n      tag_90\n      swap2\n      swap1\n      tag_59\n      jump\t// in\n    tag_90:\n        /* \"contracts/SafeMath.sol\":442:459  uint256 c = a + b */\n      swap1\n      pop\n        /* \"contracts/SafeMath.sol\":480:481  a */\n      dup4\n        /* \"contracts/SafeMath.sol\":475:476  c */\n      dup2\n        /* \"contracts/SafeMath.sol\":475:481  c >= a */\n      lt\n      iszero\n        /* \"contracts/SafeMath.sol\":468:482  assert(c >= a) */\n      tag_91\n      jumpi\n      tag_92\n      tag_86\n      jump\t// in\n    tag_92:\n    tag_91:\n        /* \"contracts/SafeMath.sol\":498:499  c */\n      dup1\n        /* \"contracts/SafeMath.sol\":491:499  return c */\n      swap2\n      pop\n      pop\n        /* \"contracts/SafeMath.sol\":366:507  function add(uint256 a, uint256 b) internal pure returns (uint256) {\r... */\n      swap3\n      swap2\n      pop\n      pop\n      jump\t// out\n        /* \"#utility.yul\":7:146   */\n    tag_94:\n        /* \"#utility.yul\":53:58   */\n      0x00\n        /* \"#utility.yul\":91:97   */\n      dup2\n        /* \"#utility.yul\":78:98   */\n      calldataload\n        /* \"#utility.yul\":69:98   */\n      swap1\n      pop\n        /* \"#utility.yul\":107:140   */\n      tag_96\n        /* \"#utility.yul\":134:139   */\n      dup2\n        /* \"#utility.yul\":107:140   */\n      tag_97\n      jump\t// in\n    tag_96:\n        /* \"#utility.yul\":7:146   */\n      swap3\n      swap2\n      pop\n      pop\n      jump\t// out\n        /* \"#utility.yul\":152:291   */\n    tag_98:\n        /* \"#utility.yul\":198:203   */\n      0x00\n        /* \"#utility.yul\":236:242   */\n      dup2\n        /* \"#utility.yul\":223:243   */\n      calldataload\n        /* \"#utility.yul\":214:243   */\n      swap1\n      pop\n        /* \"#utility.yul\":252:285   */\n      tag_100\n        /* \"#utility.yul\":279:284   */\n      dup2\n        /* \"#utility.yul\":252:285   */\n      tag_101\n      jump\t// in\n    tag_100:\n        /* \"#utility.yul\":152:291   */\n      swap3\n      swap2\n      pop\n      pop\n      jump\t// out\n        /* \"#utility.yul\":297:626   */\n    tag_42:\n        /* \"#utility.yul\":356:362   */\n      0x00\n        /* \"#utility.yul\":405:407   */\n      0x20\n        /* \"#utility.yul\":393:402   */\n      dup3\n        /* \"#utility.yul\":384:391   */\n      dup5\n        /* \"#utility.yul\":380:403   */\n      sub\n        /* \"#utility.yul\":376:408   */\n      slt\n        /* \"#utility.yul\":373:492   */\n      iszero\n      tag_103\n      jumpi\n        /* \"#utility.yul\":411:490   */\n      tag_104\n      tag_105\n      jump\t// in\n    tag_104:\n        /* \"#utility.yul\":373:492   */\n    tag_103:\n        /* \"#utility.yul\":531:532   */\n      0x00\n        /* \"#utility.yul\":556:609   */\n      tag_106\n        /* \"#utility.yul\":601:608   */\n      dup5\n        /* \"#utility.yul\":592:598   */\n      dup3\n        /* \"#utility.yul\":581:590   */\n      dup6\n        /* \"#utility.yul\":577:599   */\n      add\n        /* \"#utility.yul\":556:609   */\n      tag_94\n      jump\t// in\n    tag_106:\n        /* \"#utility.yul\":546:609   */\n      swap2\n      pop\n        /* \"#utility.yul\":502:619   */\n      pop\n        /* \"#utility.yul\":297:626   */\n      swap3\n      swap2\n      pop\n      pop\n      jump\t// out\n        /* \"#utility.yul\":632:1106   */\n    tag_51:\n        /* \"#utility.yul\":700:706   */\n      0x00\n        /* \"#utility.yul\":708:714   */\n      dup1\n        /* \"#utility.yul\":757:759   */\n      0x40\n        /* \"#utility.yul\":745:754   */\n      dup4\n        /* \"#utility.yul\":736:743   */\n      dup6\n        /* \"#utility.yul\":732:755   */\n      sub\n        /* \"#utility.yul\":728:760   */\n      slt\n        /* \"#utility.yul\":725:844   */\n      iszero\n      tag_108\n      jumpi\n        /* \"#utility.yul\":763:842   */\n      tag_109\n      tag_105\n      jump\t// in\n    tag_109:\n        /* \"#utility.yul\":725:844   */\n    tag_108:\n        /* \"#utility.yul\":883:884   */\n      0x00\n        /* \"#utility.yul\":908:961   */\n      tag_110\n        /* \"#utility.yul\":953:960   */\n      dup6\n        /* \"#utility.yul\":944:950   */\n      dup3\n        /* \"#utility.yul\":933:942   */\n      dup7\n        /* \"#utility.yul\":929:951   */\n      add\n        /* \"#utility.yul\":908:961   */\n      tag_94\n      jump\t// in\n    tag_110:\n        /* \"#utility.yul\":898:961   */\n      swap3\n      pop\n        /* \"#utility.yul\":854:971   */\n      pop\n        /* \"#utility.yul\":1010:1012   */\n      0x20\n        /* \"#utility.yul\":1036:1089   */\n      tag_111\n        /* \"#utility.yul\":1081:1088   */\n      dup6\n        /* \"#utility.yul\":1072:1078   */\n      dup3\n        /* \"#utility.yul\":1061:1070   */\n      dup7\n        /* \"#utility.yul\":1057:1079   */\n      add\n        /* \"#utility.yul\":1036:1089   */\n      tag_94\n      jump\t// in\n    tag_111:\n        /* \"#utility.yul\":1026:1089   */\n      swap2\n      pop\n        /* \"#utility.yul\":981:1099   */\n      pop\n        /* \"#utility.yul\":632:1106   */\n      swap3\n      pop\n      swap3\n      swap1\n      pop\n      jump\t// out\n        /* \"#utility.yul\":1112:1731   */\n    tag_33:\n        /* \"#utility.yul\":1189:1195   */\n      0x00\n        /* \"#utility.yul\":1197:1203   */\n      dup1\n        /* \"#utility.yul\":1205:1211   */\n      0x00\n        /* \"#utility.yul\":1254:1256   */\n      0x60\n        /* \"#utility.yul\":1242:1251   */\n      dup5\n        /* \"#utility.yul\":1233:1240   */\n      dup7\n        /* \"#utility.yul\":1229:1252   */\n      sub\n        /* \"#utility.yul\":1225:1257   */\n      slt\n        /* \"#utility.yul\":1222:1341   */\n      iszero\n      tag_113\n      jumpi\n        /* \"#utility.yul\":1260:1339   */\n      tag_114\n      tag_105\n      jump\t// in\n    tag_114:\n        /* \"#utility.yul\":1222:1341   */\n    tag_113:\n        /* \"#utility.yul\":1380:1381   */\n      0x00\n        /* \"#utility.yul\":1405:1458   */\n      tag_115\n        /* \"#utility.yul\":1450:1457   */\n      dup7\n        /* \"#utility.yul\":1441:1447   */\n      dup3\n        /* \"#utility.yul\":1430:1439   */\n      dup8\n        /* \"#utility.yul\":1426:1448   */\n      add\n        /* \"#utility.yul\":1405:1458   */\n      tag_94\n      jump\t// in\n    tag_115:\n        /* \"#utility.yul\":1395:1458   */\n      swap4\n      pop\n        /* \"#utility.yul\":1351:1468   */\n      pop\n        /* \"#utility.yul\":1507:1509   */\n      0x20\n        /* \"#utility.yul\":1533:1586   */\n      tag_116\n        /* \"#utility.yul\":1578:1585   */\n      dup7\n        /* \"#utility.yul\":1569:1575   */\n      dup3\n        /* \"#utility.yul\":1558:1567   */\n      dup8\n        /* \"#utility.yul\":1554:1576   */\n      add\n        /* \"#utility.yul\":1533:1586   */\n      tag_94\n      jump\t// in\n    tag_116:\n        /* \"#utility.yul\":1523:1586   */\n      swap3\n      pop\n        /* \"#utility.yul\":1478:1596   */\n      pop\n        /* \"#utility.yul\":1635:1637   */\n      0x40\n        /* \"#utility.yul\":1661:1714   */\n      tag_117\n        /* \"#utility.yul\":1706:1713   */\n      dup7\n        /* \"#utility.yul\":1697:1703   */\n      dup3\n        /* \"#utility.yul\":1686:1695   */\n      dup8\n        /* \"#utility.yul\":1682:1704   */\n      add\n        /* \"#utility.yul\":1661:1714   */\n      tag_98\n      jump\t// in\n    tag_117:\n        /* \"#utility.yul\":1651:1714   */\n      swap2\n      pop\n        /* \"#utility.yul\":1606:1724   */\n      pop\n        /* \"#utility.yul\":1112:1731   */\n      swap3\n      pop\n      swap3\n      pop\n      swap3\n      jump\t// out\n        /* \"#utility.yul\":1737:2211   */\n    tag_19:\n        /* \"#utility.yul\":1805:1811   */\n      0x00\n        /* \"#utility.yul\":1813:1819   */\n      dup1\n        /* \"#utility.yul\":1862:1864   */\n      0x40\n        /* \"#utility.yul\":1850:1859   */\n      dup4\n        /* \"#utility.yul\":1841:1848   */\n      dup6\n        /* \"#utility.yul\":1837:1860   */\n      sub\n        /* \"#utility.yul\":1833:1865   */\n      slt\n        /* \"#utility.yul\":1830:1949   */\n      iszero\n      tag_119\n      jumpi\n        /* \"#utility.yul\":1868:1947   */\n      tag_120\n      tag_105\n      jump\t// in\n    tag_120:\n        /* \"#utility.yul\":1830:1949   */\n    tag_119:\n        /* \"#utility.yul\":1988:1989   */\n      0x00\n        /* \"#utility.yul\":2013:2066   */\n      tag_121\n        /* \"#utility.yul\":2058:2065   */\n      dup6\n        /* \"#utility.yul\":2049:2055   */\n      dup3\n        /* \"#utility.yul\":2038:2047   */\n      dup7\n        /* \"#utility.yul\":2034:2056   */\n      add\n        /* \"#utility.yul\":2013:2066   */\n      tag_94\n      jump\t// in\n    tag_121:\n        /* \"#utility.yul\":2003:2066   */\n      swap3\n      pop\n        /* \"#utility.yul\":1959:2076   */\n      pop\n        /* \"#utility.yul\":2115:2117   */\n      0x20\n        /* \"#utility.yul\":2141:2194   */\n      tag_122\n        /* \"#utility.yul\":2186:2193   */\n      dup6\n        /* \"#utility.yul\":2177:2183   */\n      dup3\n        /* \"#utility.yul\":2166:2175   */\n      dup7\n        /* \"#utility.yul\":2162:2184   */\n      add\n        /* \"#utility.yul\":2141:2194   */\n      tag_98\n      jump\t// in\n    tag_122:\n        /* \"#utility.yul\":2131:2194   */\n      swap2\n      pop\n        /* \"#utility.yul\":2086:2204   */\n      pop\n        /* \"#utility.yul\":1737:2211   */\n      swap3\n      pop\n      swap3\n      swap1\n      pop\n      jump\t// out\n        /* \"#utility.yul\":2217:2546   */\n    tag_29:\n        /* \"#utility.yul\":2276:2282   */\n      0x00\n        /* \"#utility.yul\":2325:2327   */\n      0x20\n        /* \"#utility.yul\":2313:2322   */\n      dup3\n        /* \"#utility.yul\":2304:2311   */\n      dup5\n        /* \"#utility.yul\":2300:2323   */\n      sub\n        /* \"#utility.yul\":2296:2328   */\n      slt\n        /* \"#utility.yul\":2293:2412   */\n      iszero\n      tag_124\n      jumpi\n        /* \"#utility.yul\":2331:2410   */\n      tag_125\n      tag_105\n      jump\t// in\n    tag_125:\n        /* \"#utility.yul\":2293:2412   */\n    tag_124:\n        /* \"#utility.yul\":2451:2452   */\n      0x00\n        /* \"#utility.yul\":2476:2529   */\n      tag_126\n        /* \"#utility.yul\":2521:2528   */\n      dup5\n        /* \"#utility.yul\":2512:2518   */\n      dup3\n        /* \"#utility.yul\":2501:2510   */\n      dup6\n        /* \"#utility.yul\":2497:2519   */\n      add\n        /* \"#utility.yul\":2476:2529   */\n      tag_98\n      jump\t// in\n    tag_126:\n        /* \"#utility.yul\":2466:2529   */\n      swap2\n      pop\n        /* \"#utility.yul\":2422:2539   */\n      pop\n        /* \"#utility.yul\":2217:2546   */\n      swap3\n      swap2\n      pop\n      pop\n      jump\t// out\n        /* \"#utility.yul\":2552:2661   */\n    tag_127:\n        /* \"#utility.yul\":2633:2654   */\n      tag_129\n        /* \"#utility.yul\":2648:2653   */\n      dup2\n        /* \"#utility.yul\":2633:2654   */\n      tag_130\n      jump\t// in\n    tag_129:\n        /* \"#utility.yul\":2628:2631   */\n      dup3\n        /* \"#utility.yul\":2621:2655   */\n      mstore\n        /* \"#utility.yul\":2552:2661   */\n      pop\n      pop\n      jump\t// out\n        /* \"#utility.yul\":2667:3031   */\n    tag_131:\n        /* \"#utility.yul\":2755:2758   */\n      0x00\n        /* \"#utility.yul\":2783:2822   */\n      tag_133\n        /* \"#utility.yul\":2816:2821   */\n      dup3\n        /* \"#utility.yul\":2783:2822   */\n      tag_134\n      jump\t// in\n    tag_133:\n        /* \"#utility.yul\":2838:2909   */\n      tag_135\n        /* \"#utility.yul\":2902:2908   */\n      dup2\n        /* \"#utility.yul\":2897:2900   */\n      dup6\n        /* \"#utility.yul\":2838:2909   */\n      tag_136\n      jump\t// in\n    tag_135:\n        /* \"#utility.yul\":2831:2909   */\n      swap4\n      pop\n        /* \"#utility.yul\":2918:2970   */\n      tag_137\n        /* \"#utility.yul\":2963:2969   */\n      dup2\n        /* \"#utility.yul\":2958:2961   */\n      dup6\n        /* \"#utility.yul\":2951:2955   */\n      0x20\n        /* \"#utility.yul\":2944:2949   */\n      dup7\n        /* \"#utility.yul\":2940:2956   */\n      add\n        /* \"#utility.yul\":2918:2970   */\n      tag_138\n      jump\t// in\n    tag_137:\n        /* \"#utility.yul\":2995:3024   */\n      tag_139\n        /* \"#utility.yul\":3017:3023   */\n      dup2\n        /* \"#utility.yul\":2995:3024   */\n      tag_140\n      jump\t// in\n    tag_139:\n        /* \"#utility.yul\":2990:2993   */\n      dup5\n        /* \"#utility.yul\":2986:3025   */\n      add\n        /* \"#utility.yul\":2979:3025   */\n      swap2\n      pop\n        /* \"#utility.yul\":2759:3031   */\n      pop\n        /* \"#utility.yul\":2667:3031   */\n      swap3\n      swap2\n      pop\n      pop\n      jump\t// out\n        /* \"#utility.yul\":3037:3403   */\n    tag_141:\n        /* \"#utility.yul\":3179:3182   */\n      0x00\n        /* \"#utility.yul\":3200:3267   */\n      tag_143\n        /* \"#utility.yul\":3264:3266   */\n      0x1b\n        /* \"#utility.yul\":3259:3262   */\n      dup4\n        /* \"#utility.yul\":3200:3267   */\n      tag_136\n      jump\t// in\n    tag_143:\n        /* \"#utility.yul\":3193:3267   */\n      swap2\n      pop\n        /* \"#utility.yul\":3276:3369   */\n      tag_144\n        /* \"#utility.yul\":3365:3368   */\n      dup3\n        /* \"#utility.yul\":3276:3369   */\n      tag_145\n      jump\t// in\n    tag_144:\n        /* \"#utility.yul\":3394:3396   */\n      0x20\n        /* \"#utility.yul\":3389:3392   */\n      dup3\n        /* \"#utility.yul\":3385:3397   */\n      add\n        /* \"#utility.yul\":3378:3397   */\n      swap1\n      pop\n        /* \"#utility.yul\":3037:3403   */\n      swap2\n      swap1\n      pop\n      jump\t// out\n        /* \"#utility.yul\":3409:3775   */\n    tag_146:\n        /* \"#utility.yul\":3551:3554   */\n      0x00\n        /* \"#utility.yul\":3572:3639   */\n      tag_148\n        /* \"#utility.yul\":3636:3638   */\n      0x1f\n        /* \"#utility.yul\":3631:3634   */\n      dup4\n        /* \"#utility.yul\":3572:3639   */\n      tag_136\n      jump\t// in\n    tag_148:\n        /* \"#utility.yul\":3565:3639   */\n      swap2\n      pop\n        /* \"#utility.yul\":3648:3741   */\n      tag_149\n        /* \"#utility.yul\":3737:3740   */\n      dup3\n        /* \"#utility.yul\":3648:3741   */\n      tag_150\n      jump\t// in\n    tag_149:\n        /* \"#utility.yul\":3766:3768   */\n      0x20\n        /* \"#utility.yul\":3761:3764   */\n      dup3\n        /* \"#utility.yul\":3757:3769   */\n      add\n        /* \"#utility.yul\":3750:3769   */\n      swap1\n      pop\n        /* \"#utility.yul\":3409:3775   */\n      swap2\n      swap1\n      pop\n      jump\t// out\n        /* \"#utility.yul\":3781:4147   */\n    tag_151:\n        /* \"#utility.yul\":3923:3926   */\n      0x00\n        /* \"#utility.yul\":3944:4011   */\n      tag_153\n        /* \"#utility.yul\":4008:4010   */\n      0x16\n        /* \"#utility.yul\":4003:4006   */\n      dup4\n        /* \"#utility.yul\":3944:4011   */\n      tag_136\n      jump\t// in\n    tag_153:\n        /* \"#utility.yul\":3937:4011   */\n      swap2\n      pop\n        /* \"#utility.yul\":4020:4113   */\n      tag_154\n        /* \"#utility.yul\":4109:4112   */\n      dup3\n        /* \"#utility.yul\":4020:4113   */\n      tag_155\n      jump\t// in\n    tag_154:\n        /* \"#utility.yul\":4138:4140   */\n      0x20\n        /* \"#utility.yul\":4133:4136   */\n      dup3\n        /* \"#utility.yul\":4129:4141   */\n      add\n        /* \"#utility.yul\":4122:4141   */\n      swap1\n      pop\n        /* \"#utility.yul\":3781:4147   */\n      swap2\n      swap1\n      pop\n      jump\t// out\n        /* \"#utility.yul\":4153:4271   */\n    tag_156:\n        /* \"#utility.yul\":4240:4264   */\n      tag_158\n        /* \"#utility.yul\":4258:4263   */\n      dup2\n        /* \"#utility.yul\":4240:4264   */\n      tag_159\n      jump\t// in\n    tag_158:\n        /* \"#utility.yul\":4235:4238   */\n      dup3\n        /* \"#utility.yul\":4228:4265   */\n      mstore\n        /* \"#utility.yul\":4153:4271   */\n      pop\n      pop\n      jump\t// out\n        /* \"#utility.yul\":4277:4389   */\n    tag_160:\n        /* \"#utility.yul\":4360:4382   */\n      tag_162\n        /* \"#utility.yul\":4376:4381   */\n      dup2\n        /* \"#utility.yul\":4360:4382   */\n      tag_163\n      jump\t// in\n    tag_162:\n        /* \"#utility.yul\":4355:4358   */\n      dup3\n        /* \"#utility.yul\":4348:4383   */\n      mstore\n        /* \"#utility.yul\":4277:4389   */\n      pop\n      pop\n      jump\t// out\n        /* \"#utility.yul\":4395:4605   */\n    tag_22:\n        /* \"#utility.yul\":4482:4486   */\n      0x00\n        /* \"#utility.yul\":4520:4522   */\n      0x20\n        /* \"#utility.yul\":4509:4518   */\n      dup3\n        /* \"#utility.yul\":4505:4523   */\n      add\n        /* \"#utility.yul\":4497:4523   */\n      swap1\n      pop\n        /* \"#utility.yul\":4533:4598   */\n      tag_165\n        /* \"#utility.yul\":4595:4596   */\n      0x00\n        /* \"#utility.yul\":4584:4593   */\n      dup4\n        /* \"#utility.yul\":4580:4597   */\n      add\n        /* \"#utility.yul\":4571:4577   */\n      dup5\n        /* \"#utility.yul\":4533:4598   */\n      tag_127\n      jump\t// in\n    tag_165:\n        /* \"#utility.yul\":4395:4605   */\n      swap3\n      swap2\n      pop\n      pop\n      jump\t// out\n        /* \"#utility.yul\":4611:4924   */\n    tag_16:\n        /* \"#utility.yul\":4724:4728   */\n      0x00\n        /* \"#utility.yul\":4762:4764   */\n      0x20\n        /* \"#utility.yul\":4751:4760   */\n      dup3\n        /* \"#utility.yul\":4747:4765   */\n      add\n        /* \"#utility.yul\":4739:4765   */\n      swap1\n      pop\n        /* \"#utility.yul\":4811:4820   */\n      dup2\n        /* \"#utility.yul\":4805:4809   */\n      dup2\n        /* \"#utility.yul\":4801:4821   */\n      sub\n        /* \"#utility.yul\":4797:4798   */\n      0x00\n        /* \"#utility.yul\":4786:4795   */\n      dup4\n        /* \"#utility.yul\":4782:4799   */\n      add\n        /* \"#utility.yul\":4775:4822   */\n      mstore\n        /* \"#utility.yul\":4839:4917   */\n      tag_167\n        /* \"#utility.yul\":4912:4916   */\n      dup2\n        /* \"#utility.yul\":4903:4909   */\n      dup5\n        /* \"#utility.yul\":4839:4917   */\n      tag_131\n      jump\t// in\n    tag_167:\n        /* \"#utility.yul\":4831:4917   */\n      swap1\n      pop\n        /* \"#utility.yul\":4611:4924   */\n      swap3\n      swap2\n      pop\n      pop\n      jump\t// out\n        /* \"#utility.yul\":4930:5349   */\n    tag_64:\n        /* \"#utility.yul\":5096:5100   */\n      0x00\n        /* \"#utility.yul\":5134:5136   */\n      0x20\n        /* \"#utility.yul\":5123:5132   */\n      dup3\n        /* \"#utility.yul\":5119:5137   */\n      add\n        /* \"#utility.yul\":5111:5137   */\n      swap1\n      pop\n        /* \"#utility.yul\":5183:5192   */\n      dup2\n        /* \"#utility.yul\":5177:5181   */\n      dup2\n        /* \"#utility.yul\":5173:5193   */\n      sub\n        /* \"#utility.yul\":5169:5170   */\n      0x00\n        /* \"#utility.yul\":5158:5167   */\n      dup4\n        /* \"#utility.yul\":5154:5171   */\n      add\n        /* \"#utility.yul\":5147:5194   */\n      mstore\n        /* \"#utility.yul\":5211:5342   */\n      tag_169\n        /* \"#utility.yul\":5337:5341   */\n      dup2\n        /* \"#utility.yul\":5211:5342   */\n      tag_141\n      jump\t// in\n    tag_169:\n        /* \"#utility.yul\":5203:5342   */\n      swap1\n      pop\n        /* \"#utility.yul\":4930:5349   */\n      swap2\n      swap1\n      pop\n      jump\t// out\n        /* \"#utility.yul\":5355:5774   */\n    tag_67:\n        /* \"#utility.yul\":5521:5525   */\n      0x00\n        /* \"#utility.yul\":5559:5561   */\n      0x20\n        /* \"#utility.yul\":5548:5557   */\n      dup3\n        /* \"#utility.yul\":5544:5562   */\n      add\n        /* \"#utility.yul\":5536:5562   */\n      swap1\n      pop\n        /* \"#utility.yul\":5608:5617   */\n      dup2\n        /* \"#utility.yul\":5602:5606   */\n      dup2\n        /* \"#utility.yul\":5598:5618   */\n      sub\n        /* \"#utility.yul\":5594:5595   */\n      0x00\n        /* \"#utility.yul\":5583:5592   */\n      dup4\n        /* \"#utility.yul\":5579:5596   */\n      add\n        /* \"#utility.yul\":5572:5619   */\n      mstore\n        /* \"#utility.yul\":5636:5767   */\n      tag_171\n        /* \"#utility.yul\":5762:5766   */\n      dup2\n        /* \"#utility.yul\":5636:5767   */\n      tag_146\n      jump\t// in\n    tag_171:\n        /* \"#utility.yul\":5628:5767   */\n      swap1\n      pop\n        /* \"#utility.yul\":5355:5774   */\n      swap2\n      swap1\n      pop\n      jump\t// out\n        /* \"#utility.yul\":5780:6199   */\n    tag_78:\n        /* \"#utility.yul\":5946:5950   */\n      0x00\n        /* \"#utility.yul\":5984:5986   */\n      0x20\n        /* \"#utility.yul\":5973:5982   */\n      dup3\n        /* \"#utility.yul\":5969:5987   */\n      add\n        /* \"#utility.yul\":5961:5987   */\n      swap1\n      pop\n        /* \"#utility.yul\":6033:6042   */\n      dup2\n        /* \"#utility.yul\":6027:6031   */\n      dup2\n        /* \"#utility.yul\":6023:6043   */\n      sub\n        /* \"#utility.yul\":6019:6020   */\n      0x00\n        /* \"#utility.yul\":6008:6017   */\n      dup4\n        /* \"#utility.yul\":6004:6021   */\n      add\n        /* \"#utility.yul\":5997:6044   */\n      mstore\n        /* \"#utility.yul\":6061:6192   */\n      tag_173\n        /* \"#utility.yul\":6187:6191   */\n      dup2\n        /* \"#utility.yul\":6061:6192   */\n      tag_151\n      jump\t// in\n    tag_173:\n        /* \"#utility.yul\":6053:6192   */\n      swap1\n      pop\n        /* \"#utility.yul\":5780:6199   */\n      swap2\n      swap1\n      pop\n      jump\t// out\n        /* \"#utility.yul\":6205:6427   */\n    tag_26:\n        /* \"#utility.yul\":6298:6302   */\n      0x00\n        /* \"#utility.yul\":6336:6338   */\n      0x20\n        /* \"#utility.yul\":6325:6334   */\n      dup3\n        /* \"#utility.yul\":6321:6339   */\n      add\n        /* \"#utility.yul\":6313:6339   */\n      swap1\n      pop\n        /* \"#utility.yul\":6349:6420   */\n      tag_175\n        /* \"#utility.yul\":6417:6418   */\n      0x00\n        /* \"#utility.yul\":6406:6415   */\n      dup4\n        /* \"#utility.yul\":6402:6419   */\n      add\n        /* \"#utility.yul\":6393:6399   */\n      dup5\n        /* \"#utility.yul\":6349:6420   */\n      tag_156\n      jump\t// in\n    tag_175:\n        /* \"#utility.yul\":6205:6427   */\n      swap3\n      swap2\n      pop\n      pop\n      jump\t// out\n        /* \"#utility.yul\":6433:6647   */\n    tag_39:\n        /* \"#utility.yul\":6522:6526   */\n      0x00\n        /* \"#utility.yul\":6560:6562   */\n      0x20\n        /* \"#utility.yul\":6549:6558   */\n      dup3\n        /* \"#utility.yul\":6545:6563   */\n      add\n        /* \"#utility.yul\":6537:6563   */\n      swap1\n      pop\n        /* \"#utility.yul\":6573:6640   */\n      tag_177\n        /* \"#utility.yul\":6637:6638   */\n      0x00\n        /* \"#utility.yul\":6626:6635   */\n      dup4\n        /* \"#utility.yul\":6622:6639   */\n      add\n        /* \"#utility.yul\":6613:6619   */\n      dup5\n        /* \"#utility.yul\":6573:6640   */\n      tag_160\n      jump\t// in\n    tag_177:\n        /* \"#utility.yul\":6433:6647   */\n      swap3\n      swap2\n      pop\n      pop\n      jump\t// out\n        /* \"#utility.yul\":6734:6833   */\n    tag_134:\n        /* \"#utility.yul\":6786:6792   */\n      0x00\n        /* \"#utility.yul\":6820:6825   */\n      dup2\n        /* \"#utility.yul\":6814:6826   */\n      mload\n        /* \"#utility.yul\":6804:6826   */\n      swap1\n      pop\n        /* \"#utility.yul\":6734:6833   */\n      swap2\n      swap1\n      pop\n      jump\t// out\n        /* \"#utility.yul\":6839:7008   */\n    tag_136:\n        /* \"#utility.yul\":6923:6934   */\n      0x00\n        /* \"#utility.yul\":6957:6963   */\n      dup3\n        /* \"#utility.yul\":6952:6955   */\n      dup3\n        /* \"#utility.yul\":6945:6964   */\n      mstore\n        /* \"#utility.yul\":6997:7001   */\n      0x20\n        /* \"#utility.yul\":6992:6995   */\n      dup3\n        /* \"#utility.yul\":6988:7002   */\n      add\n        /* \"#utility.yul\":6973:7002   */\n      swap1\n      pop\n        /* \"#utility.yul\":6839:7008   */\n      swap3\n      swap2\n      pop\n      pop\n      jump\t// out\n        /* \"#utility.yul\":7014:7319   */\n    tag_59:\n        /* \"#utility.yul\":7054:7057   */\n      0x00\n        /* \"#utility.yul\":7073:7093   */\n      tag_183\n        /* \"#utility.yul\":7091:7092   */\n      dup3\n        /* \"#utility.yul\":7073:7093   */\n      tag_159\n      jump\t// in\n    tag_183:\n        /* \"#utility.yul\":7068:7093   */\n      swap2\n      pop\n        /* \"#utility.yul\":7107:7127   */\n      tag_184\n        /* \"#utility.yul\":7125:7126   */\n      dup4\n        /* \"#utility.yul\":7107:7127   */\n      tag_159\n      jump\t// in\n    tag_184:\n        /* \"#utility.yul\":7102:7127   */\n      swap3\n      pop\n        /* \"#utility.yul\":7261:7262   */\n      dup3\n        /* \"#utility.yul\":7193:7259   */\n      0xffffffffffffffffffffffffffffffffffffffffffffffffffffffffffffffff\n        /* \"#utility.yul\":7189:7263   */\n      sub\n        /* \"#utility.yul\":7186:7187   */\n      dup3\n        /* \"#utility.yul\":7183:7264   */\n      gt\n        /* \"#utility.yul\":7180:7287   */\n      iszero\n      tag_185\n      jumpi\n        /* \"#utility.yul\":7267:7285   */\n      tag_186\n      tag_187\n      jump\t// in\n    tag_186:\n        /* \"#utility.yul\":7180:7287   */\n    tag_185:\n        /* \"#utility.yul\":7311:7312   */\n      dup3\n        /* \"#utility.yul\":7308:7309   */\n      dup3\n        /* \"#utility.yul\":7304:7313   */\n      add\n        /* \"#utility.yul\":7297:7313   */\n      swap1\n      pop\n        /* \"#utility.yul\":7014:7319   */\n      swap3\n      swap2\n      pop\n      pop\n      jump\t// out\n        /* \"#utility.yul\":7325:7516   */\n    tag_88:\n        /* \"#utility.yul\":7365:7369   */\n      0x00\n        /* \"#utility.yul\":7385:7405   */\n      tag_189\n        /* \"#utility.yul\":7403:7404   */\n      dup3\n        /* \"#utility.yul\":7385:7405   */\n      tag_159\n      jump\t// in\n    tag_189:\n        /* \"#utility.yul\":7380:7405   */\n      swap2\n      pop\n        /* \"#utility.yul\":7419:7439   */\n      tag_190\n        /* \"#utility.yul\":7437:7438   */\n      dup4\n        /* \"#utility.yul\":7419:7439   */\n      tag_159\n      jump\t// in\n    tag_190:\n        /* \"#utility.yul\":7414:7439   */\n      swap3\n      pop\n        /* \"#utility.yul\":7458:7459   */\n      dup3\n        /* \"#utility.yul\":7455:7456   */\n      dup3\n        /* \"#utility.yul\":7452:7460   */\n      lt\n        /* \"#utility.yul\":7449:7483   */\n      iszero\n      tag_191\n      jumpi\n        /* \"#utility.yul\":7463:7481   */\n      tag_192\n      tag_187\n      jump\t// in\n    tag_192:\n        /* \"#utility.yul\":7449:7483   */\n    tag_191:\n        /* \"#utility.yul\":7508:7509   */\n      dup3\n        /* \"#utility.yul\":7505:7506   */\n      dup3\n        /* \"#utility.yul\":7501:7510   */\n      sub\n        /* \"#utility.yul\":7493:7510   */\n      swap1\n      pop\n        /* \"#utility.yul\":7325:7516   */\n      swap3\n      swap2\n      pop\n      pop\n      jump\t// out\n        /* \"#utility.yul\":7522:7618   */\n    tag_193:\n        /* \"#utility.yul\":7559:7566   */\n      0x00\n        /* \"#utility.yul\":7588:7612   */\n      tag_195\n        /* \"#utility.yul\":7606:7611   */\n      dup3\n        /* \"#utility.yul\":7588:7612   */\n      tag_196\n      jump\t// in\n    tag_195:\n        /* \"#utility.yul\":7577:7612   */\n      swap1\n      pop\n        /* \"#utility.yul\":7522:7618   */\n      swap2\n      swap1\n      pop\n      jump\t// out\n        /* \"#utility.yul\":7624:7714   */\n    tag_130:\n        /* \"#utility.yul\":7658:7665   */\n      0x00\n        /* \"#utility.yul\":7701:7706   */\n      dup2\n        /* \"#utility.yul\":7694:7707   */\n      iszero\n        /* \"#utility.yul\":7687:7708   */\n      iszero\n        /* \"#utility.yul\":7676:7708   */\n      swap1\n      pop\n        /* \"#utility.yul\":7624:7714   */\n      swap2\n      swap1\n      pop\n      jump\t// out\n        /* \"#utility.yul\":7720:7846   */\n    tag_196:\n        /* \"#utility.yul\":7757:7764   */\n      0x00\n        /* \"#utility.yul\":7797:7839   */\n      0xffffffffffffffffffffffffffffffffffffffff\n        /* \"#utility.yul\":7790:7795   */\n      dup3\n        /* \"#utility.yul\":7786:7840   */\n      and\n        /* \"#utility.yul\":7775:7840   */\n      swap1\n      pop\n        /* \"#utility.yul\":7720:7846   */\n      swap2\n      swap1\n      pop\n      jump\t// out\n        /* \"#utility.yul\":7852:7929   */\n    tag_159:\n        /* \"#utility.yul\":7889:7896   */\n      0x00\n        /* \"#utility.yul\":7918:7923   */\n      dup2\n        /* \"#utility.yul\":7907:7923   */\n      swap1\n      pop\n        /* \"#utility.yul\":7852:7929   */\n      swap2\n      swap1\n      pop\n      jump\t// out\n        /* \"#utility.yul\":7935:8021   */\n    tag_163:\n        /* \"#utility.yul\":7970:7977   */\n      0x00\n        /* \"#utility.yul\":8010:8014   */\n      0xff\n        /* \"#utility.yul\":8003:8008   */\n      dup3\n        /* \"#utility.yul\":7999:8015   */\n      and\n        /* \"#utility.yul\":7988:8015   */\n      swap1\n      pop\n        /* \"#utility.yul\":7935:8021   */\n      swap2\n      swap1\n      pop\n      jump\t// out\n        /* \"#utility.yul\":8027:8334   */\n    tag_138:\n        /* \"#utility.yul\":8095:8096   */\n      0x00\n        /* \"#utility.yul\":8105:8218   */\n    tag_202:\n        /* \"#utility.yul\":8119:8125   */\n      dup4\n        /* \"#utility.yul\":8116:8117   */\n      dup2\n        /* \"#utility.yul\":8113:8126   */\n      lt\n        /* \"#utility.yul\":8105:8218   */\n      iszero\n      tag_204\n      jumpi\n        /* \"#utility.yul\":8204:8205   */\n      dup1\n        /* \"#utility.yul\":8199:8202   */\n      dup3\n        /* \"#utility.yul\":8195:8206   */\n      add\n        /* \"#utility.yul\":8189:8207   */\n      mload\n        /* \"#utility.yul\":8185:8186   */\n      dup2\n        /* \"#utility.yul\":8180:8183   */\n      dup5\n        /* \"#utility.yul\":8176:8187   */\n      add\n        /* \"#utility.yul\":8169:8208   */\n      mstore\n        /* \"#utility.yul\":8141:8143   */\n      0x20\n        /* \"#utility.yul\":8138:8139   */\n      dup2\n        /* \"#utility.yul\":8134:8144   */\n      add\n        /* \"#utility.yul\":8129:8144   */\n      swap1\n      pop\n        /* \"#utility.yul\":8105:8218   */\n      jump(tag_202)\n    tag_204:\n        /* \"#utility.yul\":8236:8242   */\n      dup4\n        /* \"#utility.yul\":8233:8234   */\n      dup2\n        /* \"#utility.yul\":8230:8243   */\n      gt\n        /* \"#utility.yul\":8227:8328   */\n      iszero\n      tag_205\n      jumpi\n        /* \"#utility.yul\":8316:8317   */\n      0x00\n        /* \"#utility.yul\":8307:8313   */\n      dup5\n        /* \"#utility.yul\":8302:8305   */\n      dup5\n        /* \"#utility.yul\":8298:8314   */\n      add\n        /* \"#utility.yul\":8291:8318   */\n      mstore\n        /* \"#utility.yul\":8227:8328   */\n    tag_205:\n        /* \"#utility.yul\":8076:8334   */\n      pop\n        /* \"#utility.yul\":8027:8334   */\n      pop\n      pop\n      pop\n      jump\t// out\n        /* \"#utility.yul\":8340:8520   */\n    tag_86:\n        /* \"#utility.yul\":8388:8465   */\n      0x4e487b7100000000000000000000000000000000000000000000000000000000\n        /* \"#utility.yul\":8385:8386   */\n      0x00\n        /* \"#utility.yul\":8378:8466   */\n      mstore\n        /* \"#utility.yul\":8485:8489   */\n      0x01\n        /* \"#utility.yul\":8482:8483   */\n      0x04\n        /* \"#utility.yul\":8475:8490   */\n      mstore\n        /* \"#utility.yul\":8509:8513   */\n      0x24\n        /* \"#utility.yul\":8506:8507   */\n      0x00\n        /* \"#utility.yul\":8499:8514   */\n      revert\n        /* \"#utility.yul\":8526:8706   */\n    tag_187:\n        /* \"#utility.yul\":8574:8651   */\n      0x4e487b7100000000000000000000000000000000000000000000000000000000\n        /* \"#utility.yul\":8571:8572   */\n      0x00\n        /* \"#utility.yul\":8564:8652   */\n      mstore\n        /* \"#utility.yul\":8671:8675   */\n      0x11\n        /* \"#utility.yul\":8668:8669   */\n      0x04\n        /* \"#utility.yul\":8661:8676   */\n      mstore\n        /* \"#utility.yul\":8695:8699   */\n      0x24\n        /* \"#utility.yul\":8692:8693   */\n      0x00\n        /* \"#utility.yul\":8685:8700   */\n      revert\n        /* \"#utility.yul\":8835:8952   */\n    tag_105:\n        /* \"#utility.yul\":8944:8945   */\n      0x00\n        /* \"#utility.yul\":8941:8942   */\n      dup1\n        /* \"#utility.yul\":8934:8946   */\n      revert\n        /* \"#utility.yul\":8958:9060   */\n    tag_140:\n        /* \"#utility.yul\":8999:9005   */\n      0x00\n        /* \"#utility.yul\":9050:9052   */\n      0x1f\n        /* \"#utility.yul\":9046:9053   */\n      not\n        /* \"#utility.yul\":9041:9043   */\n      0x1f\n        /* \"#utility.yul\":9034:9039   */\n      dup4\n        /* \"#utility.yul\":9030:9044   */\n      add\n        /* \"#utility.yul\":9026:9054   */\n      and\n        /* \"#utility.yul\":9016:9054   */\n      swap1\n      pop\n        /* \"#utility.yul\":8958:9060   */\n      swap2\n      swap1\n      pop\n      jump\t// out\n        /* \"#utility.yul\":9066:9243   */\n    tag_145:\n        /* \"#utility.yul\":9206:9235   */\n      0x4e6f20646973706f6e6573206465206573612063616e74696461640000000000\n        /* \"#utility.yul\":9202:9203   */\n      0x00\n        /* \"#utility.yul\":9194:9200   */\n      dup3\n        /* \"#utility.yul\":9190:9204   */\n      add\n        /* \"#utility.yul\":9183:9236   */\n      mstore\n        /* \"#utility.yul\":9066:9243   */\n      pop\n      jump\t// out\n        /* \"#utility.yul\":9249:9430   */\n    tag_150:\n        /* \"#utility.yul\":9389:9422   */\n      0x4e6f207469656e657320617369676e616461206573612063616e746964616400\n        /* \"#utility.yul\":9385:9386   */\n      0x00\n        /* \"#utility.yul\":9377:9383   */\n      dup3\n        /* \"#utility.yul\":9373:9387   */\n      add\n        /* \"#utility.yul\":9366:9423   */\n      mstore\n        /* \"#utility.yul\":9249:9430   */\n      pop\n      jump\t// out\n        /* \"#utility.yul\":9436:9608   */\n    tag_155:\n        /* \"#utility.yul\":9576:9600   */\n      0x4e6f207469656e6573206573612063616e746964616400000000000000000000\n        /* \"#utility.yul\":9572:9573   */\n      0x00\n        /* \"#utility.yul\":9564:9570   */\n      dup3\n        /* \"#utility.yul\":9560:9574   */\n      add\n        /* \"#utility.yul\":9553:9601   */\n      mstore\n        /* \"#utility.yul\":9436:9608   */\n      pop\n      jump\t// out\n        /* \"#utility.yul\":9614:9736   */\n    tag_97:\n        /* \"#utility.yul\":9687:9711   */\n      tag_216\n        /* \"#utility.yul\":9705:9710   */\n      dup2\n        /* \"#utility.yul\":9687:9711   */\n      tag_193\n      jump\t// in\n    tag_216:\n        /* \"#utility.yul\":9680:9685   */\n      dup2\n        /* \"#utility.yul\":9677:9712   */\n      eq\n        /* \"#utility.yul\":9667:9730   */\n      tag_217\n      jumpi\n        /* \"#utility.yul\":9726:9727   */\n      0x00\n        /* \"#utility.yul\":9723:9724   */\n      dup1\n        /* \"#utility.yul\":9716:9728   */\n      revert\n        /* \"#utility.yul\":9667:9730   */\n    tag_217:\n        /* \"#utility.yul\":9614:9736   */\n      pop\n      jump\t// out\n        /* \"#utility.yul\":9742:9864   */\n    tag_101:\n        /* \"#utility.yul\":9815:9839   */\n      tag_219\n        /* \"#utility.yul\":9833:9838   */\n      dup2\n        /* \"#utility.yul\":9815:9839   */\n      tag_159\n      jump\t// in\n    tag_219:\n        /* \"#utility.yul\":9808:9813   */\n      dup2\n        /* \"#utility.yul\":9805:9840   */\n      eq\n        /* \"#utility.yul\":9795:9858   */\n      tag_220\n      jumpi\n        /* \"#utility.yul\":9854:9855   */\n      0x00\n        /* \"#utility.yul\":9851:9852   */\n      dup1\n        /* \"#utility.yul\":9844:9856   */\n      revert\n        /* \"#utility.yul\":9795:9858   */\n    tag_220:\n        /* \"#utility.yul\":9742:9864   */\n      pop\n      jump\t// out\n\n    auxdata: 0xa26469706673582212205930b74345048a2dea8477fe8786298f3995362b51fbf1cc021493576bdfa82664736f6c63430008070033\n}\n",
				"bytecode": {
					"linkReferences": {},
					"object": "608060405234801561001057600080fd5b5060405162001141380380620011418339818101604052810190610034919061009b565b806002819055506002546000803373ffffffffffffffffffffffffffffffffffffffff1673ffffffffffffffffffffffffffffffffffffffff16815260200190815260200160002081905550506100ee565b600081519050610095816100d7565b92915050565b6000602082840312156100b1576100b06100d2565b5b60006100bf84828501610086565b91505092915050565b6000819050919050565b600080fd5b6100e0816100c8565b81146100eb57600080fd5b50565b61104380620000fe6000396000f3fe608060405234801561001057600080fd5b50600436106100935760003560e01c806323b872dd1161006657806323b872dd14610120578063313ce56714610150578063851985861461016e578063a9059cbb1461019e578063dd62ed3e146101ce57610093565b806306fdde0314610098578063095ea7b3146100b657806318160ddd146100e65780631d43cc9814610104575b600080fd5b6100a06101fe565b6040516100ad9190610d0a565b60405180910390f35b6100d060048036038101906100cb9190610bb3565b610237565b6040516100dd9190610cef565b60405180910390f35b6100ee610329565b6040516100fb9190610d8c565b60405180910390f35b61011e60048036038101906101199190610bf3565b610333565b005b61013a60048036038101906101359190610b60565b6103a4565b6040516101479190610cef565b60405180910390f35b61015861078a565b6040516101659190610da7565b60405180910390f35b61018860048036038101906101839190610af3565b61078f565b6040516101959190610d8c565b60405180910390f35b6101b860048036038101906101b39190610bb3565b6107d7565b6040516101c59190610cef565b60405180910390f35b6101e860048036038101906101e39190610b20565b6109ef565b6040516101f59190610d8c565b60405180910390f35b6040518060400160405280600781526020017f4552433230415a0000000000000000000000000000000000000000000000000081525081565b600081600160003373ffffffffffffffffffffffffffffffffffffffff1673ffffffffffffffffffffffffffffffffffffffff16815260200190815260200160002060008573ffffffffffffffffffffffffffffffffffffffff1673ffffffffffffffffffffffffffffffffffffffff168152602001908152602001600020819055508273ffffffffffffffffffffffffffffffffffffffff163373ffffffffffffffffffffffffffffffffffffffff167f8c5be1e5ebec7d5bd14f71427d1e84f3dd0314c0f7b2291e5b200ac8c7c3b925846040516103179190610d8c565b60405180910390a36001905092915050565b6000600254905090565b80600260008282546103459190610dde565b92505081905550806000803373ffffffffffffffffffffffffffffffffffffffff1673ffffffffffffffffffffffffffffffffffffffff168152602001908152602001600020600082825461039a9190610dde565b9250508190555050565b6000816000808673ffffffffffffffffffffffffffffffffffffffff1673ffffffffffffffffffffffffffffffffffffffff1681526020019081526020016000205411610426576040517f08c379a000000000000000000000000000000000000000000000000000000000815260040161041d90610d2c565b60405180910390fd5b600160008573ffffffffffffffffffffffffffffffffffffffff1673ffffffffffffffffffffffffffffffffffffffff16815260200190815260200160002060003373ffffffffffffffffffffffffffffffffffffffff1673ffffffffffffffffffffffffffffffffffffffff168152602001908152602001600020548211156104e5576040517f08c379a00000000000000000000000000000000000000000000000000000000081526004016104dc90610d4c565b60405180910390fd5b610536826000808773ffffffffffffffffffffffffffffffffffffffff1673ffffffffffffffffffffffffffffffffffffffff16815260200190815260200160002054610a7690919063ffffffff16565b6000808673ffffffffffffffffffffffffffffffffffffffff1673ffffffffffffffffffffffffffffffffffffffff1681526020019081526020016000208190555061060782600160008773ffffffffffffffffffffffffffffffffffffffff1673ffffffffffffffffffffffffffffffffffffffff16815260200190815260200160002060003373ffffffffffffffffffffffffffffffffffffffff1673ffffffffffffffffffffffffffffffffffffffff16815260200190815260200160002054610a7690919063ffffffff16565b600160008673ffffffffffffffffffffffffffffffffffffffff1673ffffffffffffffffffffffffffffffffffffffff16815260200190815260200160002060003373ffffffffffffffffffffffffffffffffffffffff1673ffffffffffffffffffffffffffffffffffffffff168152602001908152602001600020819055506106d8826000808673ffffffffffffffffffffffffffffffffffffffff1673ffffffffffffffffffffffffffffffffffffffff16815260200190815260200160002054610a9d90919063ffffffff16565b6000808573ffffffffffffffffffffffffffffffffffffffff1673ffffffffffffffffffffffffffffffffffffffff168152602001908152602001600020819055508273ffffffffffffffffffffffffffffffffffffffff168473ffffffffffffffffffffffffffffffffffffffff167fddf252ad1be2c89b69c2b068fc378daa952ba7f163c4a11628f55a4df523b3ef846040516107779190610d8c565b60405180910390a3600190509392505050565b600281565b60008060008373ffffffffffffffffffffffffffffffffffffffff1673ffffffffffffffffffffffffffffffffffffffff168152602001908152602001600020549050919050565b60008060003373ffffffffffffffffffffffffffffffffffffffff1673ffffffffffffffffffffffffffffffffffffffff1681526020019081526020016000205482111561085a576040517f08c379a000000000000000000000000000000000000000000000000000000000815260040161085190610d6c565b60405180910390fd5b6108ab826000803373ffffffffffffffffffffffffffffffffffffffff1673ffffffffffffffffffffffffffffffffffffffff16815260200190815260200160002054610a7690919063ffffffff16565b6000803373ffffffffffffffffffffffffffffffffffffffff1673ffffffffffffffffffffffffffffffffffffffff1681526020019081526020016000208190555061093e826000808673ffffffffffffffffffffffffffffffffffffffff1673ffffffffffffffffffffffffffffffffffffffff16815260200190815260200160002054610a9d90919063ffffffff16565b6000808573ffffffffffffffffffffffffffffffffffffffff1673ffffffffffffffffffffffffffffffffffffffff168152602001908152602001600020819055508273ffffffffffffffffffffffffffffffffffffffff163373ffffffffffffffffffffffffffffffffffffffff167fddf252ad1be2c89b69c2b068fc378daa952ba7f163c4a11628f55a4df523b3ef846040516109dd9190610d8c565b60405180910390a36001905092915050565b6000600160008473ffffffffffffffffffffffffffffffffffffffff1673ffffffffffffffffffffffffffffffffffffffff16815260200190815260200160002060008373ffffffffffffffffffffffffffffffffffffffff1673ffffffffffffffffffffffffffffffffffffffff16815260200190815260200160002054905092915050565b600082821115610a8957610a88610ef0565b5b8183610a959190610e34565b905092915050565b6000808284610aac9190610dde565b905083811015610abf57610abe610ef0565b5b8091505092915050565b600081359050610ad881610fdf565b92915050565b600081359050610aed81610ff6565b92915050565b600060208284031215610b0957610b08610f4e565b5b6000610b1784828501610ac9565b91505092915050565b60008060408385031215610b3757610b36610f4e565b5b6000610b4585828601610ac9565b9250506020610b5685828601610ac9565b9150509250929050565b600080600060608486031215610b7957610b78610f4e565b5b6000610b8786828701610ac9565b9350506020610b9886828701610ac9565b9250506040610ba986828701610ade565b9150509250925092565b60008060408385031215610bca57610bc9610f4e565b5b6000610bd885828601610ac9565b9250506020610be985828601610ade565b9150509250929050565b600060208284031215610c0957610c08610f4e565b5b6000610c1784828501610ade565b91505092915050565b610c2981610e7a565b82525050565b6000610c3a82610dc2565b610c448185610dcd565b9350610c54818560208601610ebd565b610c5d81610f53565b840191505092915050565b6000610c75601b83610dcd565b9150610c8082610f64565b602082019050919050565b6000610c98601f83610dcd565b9150610ca382610f8d565b602082019050919050565b6000610cbb601683610dcd565b9150610cc682610fb6565b602082019050919050565b610cda81610ea6565b82525050565b610ce981610eb0565b82525050565b6000602082019050610d046000830184610c20565b92915050565b60006020820190508181036000830152610d248184610c2f565b905092915050565b60006020820190508181036000830152610d4581610c68565b9050919050565b60006020820190508181036000830152610d6581610c8b565b9050919050565b60006020820190508181036000830152610d8581610cae565b9050919050565b6000602082019050610da16000830184610cd1565b92915050565b6000602082019050610dbc6000830184610ce0565b92915050565b600081519050919050565b600082825260208201905092915050565b6000610de982610ea6565b9150610df483610ea6565b9250827fffffffffffffffffffffffffffffffffffffffffffffffffffffffffffffffff03821115610e2957610e28610f1f565b5b828201905092915050565b6000610e3f82610ea6565b9150610e4a83610ea6565b925082821015610e5d57610e5c610f1f565b5b828203905092915050565b6000610e7382610e86565b9050919050565b60008115159050919050565b600073ffffffffffffffffffffffffffffffffffffffff82169050919050565b6000819050919050565b600060ff82169050919050565b60005b83811015610edb578082015181840152602081019050610ec0565b83811115610eea576000848401525b50505050565b7f4e487b7100000000000000000000000000000000000000000000000000000000600052600160045260246000fd5b7f4e487b7100000000000000000000000000000000000000000000000000000000600052601160045260246000fd5b600080fd5b6000601f19601f8301169050919050565b7f4e6f20646973706f6e6573206465206573612063616e74696461640000000000600082015250565b7f4e6f207469656e657320617369676e616461206573612063616e746964616400600082015250565b7f4e6f207469656e6573206573612063616e746964616400000000000000000000600082015250565b610fe881610e68565b8114610ff357600080fd5b50565b610fff81610ea6565b811461100a57600080fd5b5056fea26469706673582212205930b74345048a2dea8477fe8786298f3995362b51fbf1cc021493576bdfa82664736f6c63430008070033",
					"opcodes": "PUSH1 0x80 PUSH1 0x40 MSTORE CALLVALUE DUP1 ISZERO PUSH2 0x10 JUMPI PUSH1 0x0 DUP1 REVERT JUMPDEST POP PUSH1 0x40 MLOAD PUSH3 0x1141 CODESIZE SUB DUP1 PUSH3 0x1141 DUP4 CODECOPY DUP2 DUP2 ADD PUSH1 0x40 MSTORE DUP2 ADD SWAP1 PUSH2 0x34 SWAP2 SWAP1 PUSH2 0x9B JUMP JUMPDEST DUP1 PUSH1 0x2 DUP2 SWAP1 SSTORE POP PUSH1 0x2 SLOAD PUSH1 0x0 DUP1 CALLER PUSH20 0xFFFFFFFFFFFFFFFFFFFFFFFFFFFFFFFFFFFFFFFF AND PUSH20 0xFFFFFFFFFFFFFFFFFFFFFFFFFFFFFFFFFFFFFFFF AND DUP2 MSTORE PUSH1 0x20 ADD SWAP1 DUP2 MSTORE PUSH1 0x20 ADD PUSH1 0x0 KECCAK256 DUP2 SWAP1 SSTORE POP POP PUSH2 0xEE JUMP JUMPDEST PUSH1 0x0 DUP2 MLOAD SWAP1 POP PUSH2 0x95 DUP2 PUSH2 0xD7 JUMP JUMPDEST SWAP3 SWAP2 POP POP JUMP JUMPDEST PUSH1 0x0 PUSH1 0x20 DUP3 DUP5 SUB SLT ISZERO PUSH2 0xB1 JUMPI PUSH2 0xB0 PUSH2 0xD2 JUMP JUMPDEST JUMPDEST PUSH1 0x0 PUSH2 0xBF DUP5 DUP3 DUP6 ADD PUSH2 0x86 JUMP JUMPDEST SWAP2 POP POP SWAP3 SWAP2 POP POP JUMP JUMPDEST PUSH1 0x0 DUP2 SWAP1 POP SWAP2 SWAP1 POP JUMP JUMPDEST PUSH1 0x0 DUP1 REVERT JUMPDEST PUSH2 0xE0 DUP2 PUSH2 0xC8 JUMP JUMPDEST DUP2 EQ PUSH2 0xEB JUMPI PUSH1 0x0 DUP1 REVERT JUMPDEST POP JUMP JUMPDEST PUSH2 0x1043 DUP1 PUSH3 0xFE PUSH1 0x0 CODECOPY PUSH1 0x0 RETURN INVALID PUSH1 0x80 PUSH1 0x40 MSTORE CALLVALUE DUP1 ISZERO PUSH2 0x10 JUMPI PUSH1 0x0 DUP1 REVERT JUMPDEST POP PUSH1 0x4 CALLDATASIZE LT PUSH2 0x93 JUMPI PUSH1 0x0 CALLDATALOAD PUSH1 0xE0 SHR DUP1 PUSH4 0x23B872DD GT PUSH2 0x66 JUMPI DUP1 PUSH4 0x23B872DD EQ PUSH2 0x120 JUMPI DUP1 PUSH4 0x313CE567 EQ PUSH2 0x150 JUMPI DUP1 PUSH4 0x85198586 EQ PUSH2 0x16E JUMPI DUP1 PUSH4 0xA9059CBB EQ PUSH2 0x19E JUMPI DUP1 PUSH4 0xDD62ED3E EQ PUSH2 0x1CE JUMPI PUSH2 0x93 JUMP JUMPDEST DUP1 PUSH4 0x6FDDE03 EQ PUSH2 0x98 JUMPI DUP1 PUSH4 0x95EA7B3 EQ PUSH2 0xB6 JUMPI DUP1 PUSH4 0x18160DDD EQ PUSH2 0xE6 JUMPI DUP1 PUSH4 0x1D43CC98 EQ PUSH2 0x104 JUMPI JUMPDEST PUSH1 0x0 DUP1 REVERT JUMPDEST PUSH2 0xA0 PUSH2 0x1FE JUMP JUMPDEST PUSH1 0x40 MLOAD PUSH2 0xAD SWAP2 SWAP1 PUSH2 0xD0A JUMP JUMPDEST PUSH1 0x40 MLOAD DUP1 SWAP2 SUB SWAP1 RETURN JUMPDEST PUSH2 0xD0 PUSH1 0x4 DUP1 CALLDATASIZE SUB DUP2 ADD SWAP1 PUSH2 0xCB SWAP2 SWAP1 PUSH2 0xBB3 JUMP JUMPDEST PUSH2 0x237 JUMP JUMPDEST PUSH1 0x40 MLOAD PUSH2 0xDD SWAP2 SWAP1 PUSH2 0xCEF JUMP JUMPDEST PUSH1 0x40 MLOAD DUP1 SWAP2 SUB SWAP1 RETURN JUMPDEST PUSH2 0xEE PUSH2 0x329 JUMP JUMPDEST PUSH1 0x40 MLOAD PUSH2 0xFB SWAP2 SWAP1 PUSH2 0xD8C JUMP JUMPDEST PUSH1 0x40 MLOAD DUP1 SWAP2 SUB SWAP1 RETURN JUMPDEST PUSH2 0x11E PUSH1 0x4 DUP1 CALLDATASIZE SUB DUP2 ADD SWAP1 PUSH2 0x119 SWAP2 SWAP1 PUSH2 0xBF3 JUMP JUMPDEST PUSH2 0x333 JUMP JUMPDEST STOP JUMPDEST PUSH2 0x13A PUSH1 0x4 DUP1 CALLDATASIZE SUB DUP2 ADD SWAP1 PUSH2 0x135 SWAP2 SWAP1 PUSH2 0xB60 JUMP JUMPDEST PUSH2 0x3A4 JUMP JUMPDEST PUSH1 0x40 MLOAD PUSH2 0x147 SWAP2 SWAP1 PUSH2 0xCEF JUMP JUMPDEST PUSH1 0x40 MLOAD DUP1 SWAP2 SUB SWAP1 RETURN JUMPDEST PUSH2 0x158 PUSH2 0x78A JUMP JUMPDEST PUSH1 0x40 MLOAD PUSH2 0x165 SWAP2 SWAP1 PUSH2 0xDA7 JUMP JUMPDEST PUSH1 0x40 MLOAD DUP1 SWAP2 SUB SWAP1 RETURN JUMPDEST PUSH2 0x188 PUSH1 0x4 DUP1 CALLDATASIZE SUB DUP2 ADD SWAP1 PUSH2 0x183 SWAP2 SWAP1 PUSH2 0xAF3 JUMP JUMPDEST PUSH2 0x78F JUMP JUMPDEST PUSH1 0x40 MLOAD PUSH2 0x195 SWAP2 SWAP1 PUSH2 0xD8C JUMP JUMPDEST PUSH1 0x40 MLOAD DUP1 SWAP2 SUB SWAP1 RETURN JUMPDEST PUSH2 0x1B8 PUSH1 0x4 DUP1 CALLDATASIZE SUB DUP2 ADD SWAP1 PUSH2 0x1B3 SWAP2 SWAP1 PUSH2 0xBB3 JUMP JUMPDEST PUSH2 0x7D7 JUMP JUMPDEST PUSH1 0x40 MLOAD PUSH2 0x1C5 SWAP2 SWAP1 PUSH2 0xCEF JUMP JUMPDEST PUSH1 0x40 MLOAD DUP1 SWAP2 SUB SWAP1 RETURN JUMPDEST PUSH2 0x1E8 PUSH1 0x4 DUP1 CALLDATASIZE SUB DUP2 ADD SWAP1 PUSH2 0x1E3 SWAP2 SWAP1 PUSH2 0xB20 JUMP JUMPDEST PUSH2 0x9EF JUMP JUMPDEST PUSH1 0x40 MLOAD PUSH2 0x1F5 SWAP2 SWAP1 PUSH2 0xD8C JUMP JUMPDEST PUSH1 0x40 MLOAD DUP1 SWAP2 SUB SWAP1 RETURN JUMPDEST PUSH1 0x40 MLOAD DUP1 PUSH1 0x40 ADD PUSH1 0x40 MSTORE DUP1 PUSH1 0x7 DUP2 MSTORE PUSH1 0x20 ADD PUSH32 0x4552433230415A00000000000000000000000000000000000000000000000000 DUP2 MSTORE POP DUP2 JUMP JUMPDEST PUSH1 0x0 DUP2 PUSH1 0x1 PUSH1 0x0 CALLER PUSH20 0xFFFFFFFFFFFFFFFFFFFFFFFFFFFFFFFFFFFFFFFF AND PUSH20 0xFFFFFFFFFFFFFFFFFFFFFFFFFFFFFFFFFFFFFFFF AND DUP2 MSTORE PUSH1 0x20 ADD SWAP1 DUP2 MSTORE PUSH1 0x20 ADD PUSH1 0x0 KECCAK256 PUSH1 0x0 DUP6 PUSH20 0xFFFFFFFFFFFFFFFFFFFFFFFFFFFFFFFFFFFFFFFF AND PUSH20 0xFFFFFFFFFFFFFFFFFFFFFFFFFFFFFFFFFFFFFFFF AND DUP2 MSTORE PUSH1 0x20 ADD SWAP1 DUP2 MSTORE PUSH1 0x20 ADD PUSH1 0x0 KECCAK256 DUP2 SWAP1 SSTORE POP DUP3 PUSH20 0xFFFFFFFFFFFFFFFFFFFFFFFFFFFFFFFFFFFFFFFF AND CALLER PUSH20 0xFFFFFFFFFFFFFFFFFFFFFFFFFFFFFFFFFFFFFFFF AND PUSH32 0x8C5BE1E5EBEC7D5BD14F71427D1E84F3DD0314C0F7B2291E5B200AC8C7C3B925 DUP5 PUSH1 0x40 MLOAD PUSH2 0x317 SWAP2 SWAP1 PUSH2 0xD8C JUMP JUMPDEST PUSH1 0x40 MLOAD DUP1 SWAP2 SUB SWAP1 LOG3 PUSH1 0x1 SWAP1 POP SWAP3 SWAP2 POP POP JUMP JUMPDEST PUSH1 0x0 PUSH1 0x2 SLOAD SWAP1 POP SWAP1 JUMP JUMPDEST DUP1 PUSH1 0x2 PUSH1 0x0 DUP3 DUP3 SLOAD PUSH2 0x345 SWAP2 SWAP1 PUSH2 0xDDE JUMP JUMPDEST SWAP3 POP POP DUP2 SWAP1 SSTORE POP DUP1 PUSH1 0x0 DUP1 CALLER PUSH20 0xFFFFFFFFFFFFFFFFFFFFFFFFFFFFFFFFFFFFFFFF AND PUSH20 0xFFFFFFFFFFFFFFFFFFFFFFFFFFFFFFFFFFFFFFFF AND DUP2 MSTORE PUSH1 0x20 ADD SWAP1 DUP2 MSTORE PUSH1 0x20 ADD PUSH1 0x0 KECCAK256 PUSH1 0x0 DUP3 DUP3 SLOAD PUSH2 0x39A SWAP2 SWAP1 PUSH2 0xDDE JUMP JUMPDEST SWAP3 POP POP DUP2 SWAP1 SSTORE POP POP JUMP JUMPDEST PUSH1 0x0 DUP2 PUSH1 0x0 DUP1 DUP7 PUSH20 0xFFFFFFFFFFFFFFFFFFFFFFFFFFFFFFFFFFFFFFFF AND PUSH20 0xFFFFFFFFFFFFFFFFFFFFFFFFFFFFFFFFFFFFFFFF AND DUP2 MSTORE PUSH1 0x20 ADD SWAP1 DUP2 MSTORE PUSH1 0x20 ADD PUSH1 0x0 KECCAK256 SLOAD GT PUSH2 0x426 JUMPI PUSH1 0x40 MLOAD PUSH32 0x8C379A000000000000000000000000000000000000000000000000000000000 DUP2 MSTORE PUSH1 0x4 ADD PUSH2 0x41D SWAP1 PUSH2 0xD2C JUMP JUMPDEST PUSH1 0x40 MLOAD DUP1 SWAP2 SUB SWAP1 REVERT JUMPDEST PUSH1 0x1 PUSH1 0x0 DUP6 PUSH20 0xFFFFFFFFFFFFFFFFFFFFFFFFFFFFFFFFFFFFFFFF AND PUSH20 0xFFFFFFFFFFFFFFFFFFFFFFFFFFFFFFFFFFFFFFFF AND DUP2 MSTORE PUSH1 0x20 ADD SWAP1 DUP2 MSTORE PUSH1 0x20 ADD PUSH1 0x0 KECCAK256 PUSH1 0x0 CALLER PUSH20 0xFFFFFFFFFFFFFFFFFFFFFFFFFFFFFFFFFFFFFFFF AND PUSH20 0xFFFFFFFFFFFFFFFFFFFFFFFFFFFFFFFFFFFFFFFF AND DUP2 MSTORE PUSH1 0x20 ADD SWAP1 DUP2 MSTORE PUSH1 0x20 ADD PUSH1 0x0 KECCAK256 SLOAD DUP3 GT ISZERO PUSH2 0x4E5 JUMPI PUSH1 0x40 MLOAD PUSH32 0x8C379A000000000000000000000000000000000000000000000000000000000 DUP2 MSTORE PUSH1 0x4 ADD PUSH2 0x4DC SWAP1 PUSH2 0xD4C JUMP JUMPDEST PUSH1 0x40 MLOAD DUP1 SWAP2 SUB SWAP1 REVERT JUMPDEST PUSH2 0x536 DUP3 PUSH1 0x0 DUP1 DUP8 PUSH20 0xFFFFFFFFFFFFFFFFFFFFFFFFFFFFFFFFFFFFFFFF AND PUSH20 0xFFFFFFFFFFFFFFFFFFFFFFFFFFFFFFFFFFFFFFFF AND DUP2 MSTORE PUSH1 0x20 ADD SWAP1 DUP2 MSTORE PUSH1 0x20 ADD PUSH1 0x0 KECCAK256 SLOAD PUSH2 0xA76 SWAP1 SWAP2 SWAP1 PUSH4 0xFFFFFFFF AND JUMP JUMPDEST PUSH1 0x0 DUP1 DUP7 PUSH20 0xFFFFFFFFFFFFFFFFFFFFFFFFFFFFFFFFFFFFFFFF AND PUSH20 0xFFFFFFFFFFFFFFFFFFFFFFFFFFFFFFFFFFFFFFFF AND DUP2 MSTORE PUSH1 0x20 ADD SWAP1 DUP2 MSTORE PUSH1 0x20 ADD PUSH1 0x0 KECCAK256 DUP2 SWAP1 SSTORE POP PUSH2 0x607 DUP3 PUSH1 0x1 PUSH1 0x0 DUP8 PUSH20 0xFFFFFFFFFFFFFFFFFFFFFFFFFFFFFFFFFFFFFFFF AND PUSH20 0xFFFFFFFFFFFFFFFFFFFFFFFFFFFFFFFFFFFFFFFF AND DUP2 MSTORE PUSH1 0x20 ADD SWAP1 DUP2 MSTORE PUSH1 0x20 ADD PUSH1 0x0 KECCAK256 PUSH1 0x0 CALLER PUSH20 0xFFFFFFFFFFFFFFFFFFFFFFFFFFFFFFFFFFFFFFFF AND PUSH20 0xFFFFFFFFFFFFFFFFFFFFFFFFFFFFFFFFFFFFFFFF AND DUP2 MSTORE PUSH1 0x20 ADD SWAP1 DUP2 MSTORE PUSH1 0x20 ADD PUSH1 0x0 KECCAK256 SLOAD PUSH2 0xA76 SWAP1 SWAP2 SWAP1 PUSH4 0xFFFFFFFF AND JUMP JUMPDEST PUSH1 0x1 PUSH1 0x0 DUP7 PUSH20 0xFFFFFFFFFFFFFFFFFFFFFFFFFFFFFFFFFFFFFFFF AND PUSH20 0xFFFFFFFFFFFFFFFFFFFFFFFFFFFFFFFFFFFFFFFF AND DUP2 MSTORE PUSH1 0x20 ADD SWAP1 DUP2 MSTORE PUSH1 0x20 ADD PUSH1 0x0 KECCAK256 PUSH1 0x0 CALLER PUSH20 0xFFFFFFFFFFFFFFFFFFFFFFFFFFFFFFFFFFFFFFFF AND PUSH20 0xFFFFFFFFFFFFFFFFFFFFFFFFFFFFFFFFFFFFFFFF AND DUP2 MSTORE PUSH1 0x20 ADD SWAP1 DUP2 MSTORE PUSH1 0x20 ADD PUSH1 0x0 KECCAK256 DUP2 SWAP1 SSTORE POP PUSH2 0x6D8 DUP3 PUSH1 0x0 DUP1 DUP7 PUSH20 0xFFFFFFFFFFFFFFFFFFFFFFFFFFFFFFFFFFFFFFFF AND PUSH20 0xFFFFFFFFFFFFFFFFFFFFFFFFFFFFFFFFFFFFFFFF AND DUP2 MSTORE PUSH1 0x20 ADD SWAP1 DUP2 MSTORE PUSH1 0x20 ADD PUSH1 0x0 KECCAK256 SLOAD PUSH2 0xA9D SWAP1 SWAP2 SWAP1 PUSH4 0xFFFFFFFF AND JUMP JUMPDEST PUSH1 0x0 DUP1 DUP6 PUSH20 0xFFFFFFFFFFFFFFFFFFFFFFFFFFFFFFFFFFFFFFFF AND PUSH20 0xFFFFFFFFFFFFFFFFFFFFFFFFFFFFFFFFFFFFFFFF AND DUP2 MSTORE PUSH1 0x20 ADD SWAP1 DUP2 MSTORE PUSH1 0x20 ADD PUSH1 0x0 KECCAK256 DUP2 SWAP1 SSTORE POP DUP3 PUSH20 0xFFFFFFFFFFFFFFFFFFFFFFFFFFFFFFFFFFFFFFFF AND DUP5 PUSH20 0xFFFFFFFFFFFFFFFFFFFFFFFFFFFFFFFFFFFFFFFF AND PUSH32 0xDDF252AD1BE2C89B69C2B068FC378DAA952BA7F163C4A11628F55A4DF523B3EF DUP5 PUSH1 0x40 MLOAD PUSH2 0x777 SWAP2 SWAP1 PUSH2 0xD8C JUMP JUMPDEST PUSH1 0x40 MLOAD DUP1 SWAP2 SUB SWAP1 LOG3 PUSH1 0x1 SWAP1 POP SWAP4 SWAP3 POP POP POP JUMP JUMPDEST PUSH1 0x2 DUP2 JUMP JUMPDEST PUSH1 0x0 DUP1 PUSH1 0x0 DUP4 PUSH20 0xFFFFFFFFFFFFFFFFFFFFFFFFFFFFFFFFFFFFFFFF AND PUSH20 0xFFFFFFFFFFFFFFFFFFFFFFFFFFFFFFFFFFFFFFFF AND DUP2 MSTORE PUSH1 0x20 ADD SWAP1 DUP2 MSTORE PUSH1 0x20 ADD PUSH1 0x0 KECCAK256 SLOAD SWAP1 POP SWAP2 SWAP1 POP JUMP JUMPDEST PUSH1 0x0 DUP1 PUSH1 0x0 CALLER PUSH20 0xFFFFFFFFFFFFFFFFFFFFFFFFFFFFFFFFFFFFFFFF AND PUSH20 0xFFFFFFFFFFFFFFFFFFFFFFFFFFFFFFFFFFFFFFFF AND DUP2 MSTORE PUSH1 0x20 ADD SWAP1 DUP2 MSTORE PUSH1 0x20 ADD PUSH1 0x0 KECCAK256 SLOAD DUP3 GT ISZERO PUSH2 0x85A JUMPI PUSH1 0x40 MLOAD PUSH32 0x8C379A000000000000000000000000000000000000000000000000000000000 DUP2 MSTORE PUSH1 0x4 ADD PUSH2 0x851 SWAP1 PUSH2 0xD6C JUMP JUMPDEST PUSH1 0x40 MLOAD DUP1 SWAP2 SUB SWAP1 REVERT JUMPDEST PUSH2 0x8AB DUP3 PUSH1 0x0 DUP1 CALLER PUSH20 0xFFFFFFFFFFFFFFFFFFFFFFFFFFFFFFFFFFFFFFFF AND PUSH20 0xFFFFFFFFFFFFFFFFFFFFFFFFFFFFFFFFFFFFFFFF AND DUP2 MSTORE PUSH1 0x20 ADD SWAP1 DUP2 MSTORE PUSH1 0x20 ADD PUSH1 0x0 KECCAK256 SLOAD PUSH2 0xA76 SWAP1 SWAP2 SWAP1 PUSH4 0xFFFFFFFF AND JUMP JUMPDEST PUSH1 0x0 DUP1 CALLER PUSH20 0xFFFFFFFFFFFFFFFFFFFFFFFFFFFFFFFFFFFFFFFF AND PUSH20 0xFFFFFFFFFFFFFFFFFFFFFFFFFFFFFFFFFFFFFFFF AND DUP2 MSTORE PUSH1 0x20 ADD SWAP1 DUP2 MSTORE PUSH1 0x20 ADD PUSH1 0x0 KECCAK256 DUP2 SWAP1 SSTORE POP PUSH2 0x93E DUP3 PUSH1 0x0 DUP1 DUP7 PUSH20 0xFFFFFFFFFFFFFFFFFFFFFFFFFFFFFFFFFFFFFFFF AND PUSH20 0xFFFFFFFFFFFFFFFFFFFFFFFFFFFFFFFFFFFFFFFF AND DUP2 MSTORE PUSH1 0x20 ADD SWAP1 DUP2 MSTORE PUSH1 0x20 ADD PUSH1 0x0 KECCAK256 SLOAD PUSH2 0xA9D SWAP1 SWAP2 SWAP1 PUSH4 0xFFFFFFFF AND JUMP JUMPDEST PUSH1 0x0 DUP1 DUP6 PUSH20 0xFFFFFFFFFFFFFFFFFFFFFFFFFFFFFFFFFFFFFFFF AND PUSH20 0xFFFFFFFFFFFFFFFFFFFFFFFFFFFFFFFFFFFFFFFF AND DUP2 MSTORE PUSH1 0x20 ADD SWAP1 DUP2 MSTORE PUSH1 0x20 ADD PUSH1 0x0 KECCAK256 DUP2 SWAP1 SSTORE POP DUP3 PUSH20 0xFFFFFFFFFFFFFFFFFFFFFFFFFFFFFFFFFFFFFFFF AND CALLER PUSH20 0xFFFFFFFFFFFFFFFFFFFFFFFFFFFFFFFFFFFFFFFF AND PUSH32 0xDDF252AD1BE2C89B69C2B068FC378DAA952BA7F163C4A11628F55A4DF523B3EF DUP5 PUSH1 0x40 MLOAD PUSH2 0x9DD SWAP2 SWAP1 PUSH2 0xD8C JUMP JUMPDEST PUSH1 0x40 MLOAD DUP1 SWAP2 SUB SWAP1 LOG3 PUSH1 0x1 SWAP1 POP SWAP3 SWAP2 POP POP JUMP JUMPDEST PUSH1 0x0 PUSH1 0x1 PUSH1 0x0 DUP5 PUSH20 0xFFFFFFFFFFFFFFFFFFFFFFFFFFFFFFFFFFFFFFFF AND PUSH20 0xFFFFFFFFFFFFFFFFFFFFFFFFFFFFFFFFFFFFFFFF AND DUP2 MSTORE PUSH1 0x20 ADD SWAP1 DUP2 MSTORE PUSH1 0x20 ADD PUSH1 0x0 KECCAK256 PUSH1 0x0 DUP4 PUSH20 0xFFFFFFFFFFFFFFFFFFFFFFFFFFFFFFFFFFFFFFFF AND PUSH20 0xFFFFFFFFFFFFFFFFFFFFFFFFFFFFFFFFFFFFFFFF AND DUP2 MSTORE PUSH1 0x20 ADD SWAP1 DUP2 MSTORE PUSH1 0x20 ADD PUSH1 0x0 KECCAK256 SLOAD SWAP1 POP SWAP3 SWAP2 POP POP JUMP JUMPDEST PUSH1 0x0 DUP3 DUP3 GT ISZERO PUSH2 0xA89 JUMPI PUSH2 0xA88 PUSH2 0xEF0 JUMP JUMPDEST JUMPDEST DUP2 DUP4 PUSH2 0xA95 SWAP2 SWAP1 PUSH2 0xE34 JUMP JUMPDEST SWAP1 POP SWAP3 SWAP2 POP POP JUMP JUMPDEST PUSH1 0x0 DUP1 DUP3 DUP5 PUSH2 0xAAC SWAP2 SWAP1 PUSH2 0xDDE JUMP JUMPDEST SWAP1 POP DUP4 DUP2 LT ISZERO PUSH2 0xABF JUMPI PUSH2 0xABE PUSH2 0xEF0 JUMP JUMPDEST JUMPDEST DUP1 SWAP2 POP POP SWAP3 SWAP2 POP POP JUMP JUMPDEST PUSH1 0x0 DUP2 CALLDATALOAD SWAP1 POP PUSH2 0xAD8 DUP2 PUSH2 0xFDF JUMP JUMPDEST SWAP3 SWAP2 POP POP JUMP JUMPDEST PUSH1 0x0 DUP2 CALLDATALOAD SWAP1 POP PUSH2 0xAED DUP2 PUSH2 0xFF6 JUMP JUMPDEST SWAP3 SWAP2 POP POP JUMP JUMPDEST PUSH1 0x0 PUSH1 0x20 DUP3 DUP5 SUB SLT ISZERO PUSH2 0xB09 JUMPI PUSH2 0xB08 PUSH2 0xF4E JUMP JUMPDEST JUMPDEST PUSH1 0x0 PUSH2 0xB17 DUP5 DUP3 DUP6 ADD PUSH2 0xAC9 JUMP JUMPDEST SWAP2 POP POP SWAP3 SWAP2 POP POP JUMP JUMPDEST PUSH1 0x0 DUP1 PUSH1 0x40 DUP4 DUP6 SUB SLT ISZERO PUSH2 0xB37 JUMPI PUSH2 0xB36 PUSH2 0xF4E JUMP JUMPDEST JUMPDEST PUSH1 0x0 PUSH2 0xB45 DUP6 DUP3 DUP7 ADD PUSH2 0xAC9 JUMP JUMPDEST SWAP3 POP POP PUSH1 0x20 PUSH2 0xB56 DUP6 DUP3 DUP7 ADD PUSH2 0xAC9 JUMP JUMPDEST SWAP2 POP POP SWAP3 POP SWAP3 SWAP1 POP JUMP JUMPDEST PUSH1 0x0 DUP1 PUSH1 0x0 PUSH1 0x60 DUP5 DUP7 SUB SLT ISZERO PUSH2 0xB79 JUMPI PUSH2 0xB78 PUSH2 0xF4E JUMP JUMPDEST JUMPDEST PUSH1 0x0 PUSH2 0xB87 DUP7 DUP3 DUP8 ADD PUSH2 0xAC9 JUMP JUMPDEST SWAP4 POP POP PUSH1 0x20 PUSH2 0xB98 DUP7 DUP3 DUP8 ADD PUSH2 0xAC9 JUMP JUMPDEST SWAP3 POP POP PUSH1 0x40 PUSH2 0xBA9 DUP7 DUP3 DUP8 ADD PUSH2 0xADE JUMP JUMPDEST SWAP2 POP POP SWAP3 POP SWAP3 POP SWAP3 JUMP JUMPDEST PUSH1 0x0 DUP1 PUSH1 0x40 DUP4 DUP6 SUB SLT ISZERO PUSH2 0xBCA JUMPI PUSH2 0xBC9 PUSH2 0xF4E JUMP JUMPDEST JUMPDEST PUSH1 0x0 PUSH2 0xBD8 DUP6 DUP3 DUP7 ADD PUSH2 0xAC9 JUMP JUMPDEST SWAP3 POP POP PUSH1 0x20 PUSH2 0xBE9 DUP6 DUP3 DUP7 ADD PUSH2 0xADE JUMP JUMPDEST SWAP2 POP POP SWAP3 POP SWAP3 SWAP1 POP JUMP JUMPDEST PUSH1 0x0 PUSH1 0x20 DUP3 DUP5 SUB SLT ISZERO PUSH2 0xC09 JUMPI PUSH2 0xC08 PUSH2 0xF4E JUMP JUMPDEST JUMPDEST PUSH1 0x0 PUSH2 0xC17 DUP5 DUP3 DUP6 ADD PUSH2 0xADE JUMP JUMPDEST SWAP2 POP POP SWAP3 SWAP2 POP POP JUMP JUMPDEST PUSH2 0xC29 DUP2 PUSH2 0xE7A JUMP JUMPDEST DUP3 MSTORE POP POP JUMP JUMPDEST PUSH1 0x0 PUSH2 0xC3A DUP3 PUSH2 0xDC2 JUMP JUMPDEST PUSH2 0xC44 DUP2 DUP6 PUSH2 0xDCD JUMP JUMPDEST SWAP4 POP PUSH2 0xC54 DUP2 DUP6 PUSH1 0x20 DUP7 ADD PUSH2 0xEBD JUMP JUMPDEST PUSH2 0xC5D DUP2 PUSH2 0xF53 JUMP JUMPDEST DUP5 ADD SWAP2 POP POP SWAP3 SWAP2 POP POP JUMP JUMPDEST PUSH1 0x0 PUSH2 0xC75 PUSH1 0x1B DUP4 PUSH2 0xDCD JUMP JUMPDEST SWAP2 POP PUSH2 0xC80 DUP3 PUSH2 0xF64 JUMP JUMPDEST PUSH1 0x20 DUP3 ADD SWAP1 POP SWAP2 SWAP1 POP JUMP JUMPDEST PUSH1 0x0 PUSH2 0xC98 PUSH1 0x1F DUP4 PUSH2 0xDCD JUMP JUMPDEST SWAP2 POP PUSH2 0xCA3 DUP3 PUSH2 0xF8D JUMP JUMPDEST PUSH1 0x20 DUP3 ADD SWAP1 POP SWAP2 SWAP1 POP JUMP JUMPDEST PUSH1 0x0 PUSH2 0xCBB PUSH1 0x16 DUP4 PUSH2 0xDCD JUMP JUMPDEST SWAP2 POP PUSH2 0xCC6 DUP3 PUSH2 0xFB6 JUMP JUMPDEST PUSH1 0x20 DUP3 ADD SWAP1 POP SWAP2 SWAP1 POP JUMP JUMPDEST PUSH2 0xCDA DUP2 PUSH2 0xEA6 JUMP JUMPDEST DUP3 MSTORE POP POP JUMP JUMPDEST PUSH2 0xCE9 DUP2 PUSH2 0xEB0 JUMP JUMPDEST DUP3 MSTORE POP POP JUMP JUMPDEST PUSH1 0x0 PUSH1 0x20 DUP3 ADD SWAP1 POP PUSH2 0xD04 PUSH1 0x0 DUP4 ADD DUP5 PUSH2 0xC20 JUMP JUMPDEST SWAP3 SWAP2 POP POP JUMP JUMPDEST PUSH1 0x0 PUSH1 0x20 DUP3 ADD SWAP1 POP DUP2 DUP2 SUB PUSH1 0x0 DUP4 ADD MSTORE PUSH2 0xD24 DUP2 DUP5 PUSH2 0xC2F JUMP JUMPDEST SWAP1 POP SWAP3 SWAP2 POP POP JUMP JUMPDEST PUSH1 0x0 PUSH1 0x20 DUP3 ADD SWAP1 POP DUP2 DUP2 SUB PUSH1 0x0 DUP4 ADD MSTORE PUSH2 0xD45 DUP2 PUSH2 0xC68 JUMP JUMPDEST SWAP1 POP SWAP2 SWAP1 POP JUMP JUMPDEST PUSH1 0x0 PUSH1 0x20 DUP3 ADD SWAP1 POP DUP2 DUP2 SUB PUSH1 0x0 DUP4 ADD MSTORE PUSH2 0xD65 DUP2 PUSH2 0xC8B JUMP JUMPDEST SWAP1 POP SWAP2 SWAP1 POP JUMP JUMPDEST PUSH1 0x0 PUSH1 0x20 DUP3 ADD SWAP1 POP DUP2 DUP2 SUB PUSH1 0x0 DUP4 ADD MSTORE PUSH2 0xD85 DUP2 PUSH2 0xCAE JUMP JUMPDEST SWAP1 POP SWAP2 SWAP1 POP JUMP JUMPDEST PUSH1 0x0 PUSH1 0x20 DUP3 ADD SWAP1 POP PUSH2 0xDA1 PUSH1 0x0 DUP4 ADD DUP5 PUSH2 0xCD1 JUMP JUMPDEST SWAP3 SWAP2 POP POP JUMP JUMPDEST PUSH1 0x0 PUSH1 0x20 DUP3 ADD SWAP1 POP PUSH2 0xDBC PUSH1 0x0 DUP4 ADD DUP5 PUSH2 0xCE0 JUMP JUMPDEST SWAP3 SWAP2 POP POP JUMP JUMPDEST PUSH1 0x0 DUP2 MLOAD SWAP1 POP SWAP2 SWAP1 POP JUMP JUMPDEST PUSH1 0x0 DUP3 DUP3 MSTORE PUSH1 0x20 DUP3 ADD SWAP1 POP SWAP3 SWAP2 POP POP JUMP JUMPDEST PUSH1 0x0 PUSH2 0xDE9 DUP3 PUSH2 0xEA6 JUMP JUMPDEST SWAP2 POP PUSH2 0xDF4 DUP4 PUSH2 0xEA6 JUMP JUMPDEST SWAP3 POP DUP3 PUSH32 0xFFFFFFFFFFFFFFFFFFFFFFFFFFFFFFFFFFFFFFFFFFFFFFFFFFFFFFFFFFFFFFFF SUB DUP3 GT ISZERO PUSH2 0xE29 JUMPI PUSH2 0xE28 PUSH2 0xF1F JUMP JUMPDEST JUMPDEST DUP3 DUP3 ADD SWAP1 POP SWAP3 SWAP2 POP POP JUMP JUMPDEST PUSH1 0x0 PUSH2 0xE3F DUP3 PUSH2 0xEA6 JUMP JUMPDEST SWAP2 POP PUSH2 0xE4A DUP4 PUSH2 0xEA6 JUMP JUMPDEST SWAP3 POP DUP3 DUP3 LT ISZERO PUSH2 0xE5D JUMPI PUSH2 0xE5C PUSH2 0xF1F JUMP JUMPDEST JUMPDEST DUP3 DUP3 SUB SWAP1 POP SWAP3 SWAP2 POP POP JUMP JUMPDEST PUSH1 0x0 PUSH2 0xE73 DUP3 PUSH2 0xE86 JUMP JUMPDEST SWAP1 POP SWAP2 SWAP1 POP JUMP JUMPDEST PUSH1 0x0 DUP2 ISZERO ISZERO SWAP1 POP SWAP2 SWAP1 POP JUMP JUMPDEST PUSH1 0x0 PUSH20 0xFFFFFFFFFFFFFFFFFFFFFFFFFFFFFFFFFFFFFFFF DUP3 AND SWAP1 POP SWAP2 SWAP1 POP JUMP JUMPDEST PUSH1 0x0 DUP2 SWAP1 POP SWAP2 SWAP1 POP JUMP JUMPDEST PUSH1 0x0 PUSH1 0xFF DUP3 AND SWAP1 POP SWAP2 SWAP1 POP JUMP JUMPDEST PUSH1 0x0 JUMPDEST DUP4 DUP2 LT ISZERO PUSH2 0xEDB JUMPI DUP1 DUP3 ADD MLOAD DUP2 DUP5 ADD MSTORE PUSH1 0x20 DUP2 ADD SWAP1 POP PUSH2 0xEC0 JUMP JUMPDEST DUP4 DUP2 GT ISZERO PUSH2 0xEEA JUMPI PUSH1 0x0 DUP5 DUP5 ADD MSTORE JUMPDEST POP POP POP POP JUMP JUMPDEST PUSH32 0x4E487B7100000000000000000000000000000000000000000000000000000000 PUSH1 0x0 MSTORE PUSH1 0x1 PUSH1 0x4 MSTORE PUSH1 0x24 PUSH1 0x0 REVERT JUMPDEST PUSH32 0x4E487B7100000000000000000000000000000000000000000000000000000000 PUSH1 0x0 MSTORE PUSH1 0x11 PUSH1 0x4 MSTORE PUSH1 0x24 PUSH1 0x0 REVERT JUMPDEST PUSH1 0x0 DUP1 REVERT JUMPDEST PUSH1 0x0 PUSH1 0x1F NOT PUSH1 0x1F DUP4 ADD AND SWAP1 POP SWAP2 SWAP1 POP JUMP JUMPDEST PUSH32 0x4E6F20646973706F6E6573206465206573612063616E74696461640000000000 PUSH1 0x0 DUP3 ADD MSTORE POP JUMP JUMPDEST PUSH32 0x4E6F207469656E657320617369676E616461206573612063616E746964616400 PUSH1 0x0 DUP3 ADD MSTORE POP JUMP JUMPDEST PUSH32 0x4E6F207469656E6573206573612063616E746964616400000000000000000000 PUSH1 0x0 DUP3 ADD MSTORE POP JUMP JUMPDEST PUSH2 0xFE8 DUP2 PUSH2 0xE68 JUMP JUMPDEST DUP2 EQ PUSH2 0xFF3 JUMPI PUSH1 0x0 DUP1 REVERT JUMPDEST POP JUMP JUMPDEST PUSH2 0xFFF DUP2 PUSH2 0xEA6 JUMP JUMPDEST DUP2 EQ PUSH2 0x100A JUMPI PUSH1 0x0 DUP1 REVERT JUMPDEST POP JUMP INVALID LOG2 PUSH5 0x6970667358 0x22 SLT KECCAK256 MSIZE ADDRESS 0xB7 NUMBER GASLIMIT DIV DUP11 0x2D 0xEA DUP5 PUSH24 0xFE8786298F3995362B51FBF1CC021493576BDFA82664736F PUSH13 0x63430008070033000000000000 "
				},
				"gasEstimates": {
					"creation": {
						"codeDepositCost": "832600",
						"executionCost": "infinite",
						"totalCost": "infinite"
					},
					"external": {
						"allowance(address,address)": "infinite",
						"approve(address,uint256)": "infinite",
						"decimals()": "357",
						"increaseTotalSupply(uint256)": "infinite",
						"name()": "infinite",
						"totalSupply()": "2482",
						"transfer(address,uint256)": "infinite",
						"transferFrom(address,address,uint256)": "infinite",
						"valanceOf(address)": "2885"
					}
				},
				"methodIdentifiers": {
					"allowance(address,address)": "dd62ed3e",
					"approve(address,uint256)": "095ea7b3",
					"decimals()": "313ce567",
					"increaseTotalSupply(uint256)": "1d43cc98",
					"name()": "06fdde03",
					"totalSupply()": "18160ddd",
					"transfer(address,uint256)": "a9059cbb",
					"transferFrom(address,address,uint256)": "23b872dd",
					"valanceOf(address)": "85198586"
				}
			},
			"storageLayout": {
				"storage": [
					{
						"astId": 85,
						"contract": "contracts/ERC20.sol:ERC20Basic",
						"label": "balances",
						"offset": 0,
						"slot": "0",
						"type": "t_mapping(t_address,t_uint256)"
					},
					{
						"astId": 91,
						"contract": "contracts/ERC20.sol:ERC20Basic",
						"label": "allowed",
						"offset": 0,
						"slot": "1",
						"type": "t_mapping(t_address,t_mapping(t_address,t_uint256))"
					},
					{
						"astId": 93,
						"contract": "contracts/ERC20.sol:ERC20Basic",
						"label": "totalSupply_",
						"offset": 0,
						"slot": "2",
						"type": "t_uint256"
					}
				],
				"types": {
					"t_address": {
						"encoding": "inplace",
						"label": "address",
						"numberOfBytes": "20"
					},
					"t_mapping(t_address,t_mapping(t_address,t_uint256))": {
						"encoding": "mapping",
						"key": "t_address",
						"label": "mapping(address => mapping(address => uint256))",
						"numberOfBytes": "32",
						"value": "t_mapping(t_address,t_uint256)"
					},
					"t_mapping(t_address,t_uint256)": {
						"encoding": "mapping",
						"key": "t_address",
						"label": "mapping(address => uint256)",
						"numberOfBytes": "32",
						"value": "t_uint256"
					},
					"t_uint256": {
						"encoding": "inplace",
						"label": "uint256",
						"numberOfBytes": "32"
					}
				}
			},
			"userdoc": {
				"kind": "user",
				"methods": {},
				"version": 1
			}
		}
	}
}