{
	"ERC721/Papeleta.sol": {
		"Papeleta": {
			"abi": [
				{
					"inputs": [
						{
							"internalType": "uint256",
							"name": "_tokenID",
							"type": "uint256"
						},
						{
							"internalType": "address",
							"name": "_minter",
							"type": "address"
						},
						{
							"internalType": "uint256",
							"name": "_ci",
							"type": "uint256"
						}
					],
					"name": "cifradoVotante",
					"outputs": [
						{
							"internalType": "uint256",
							"name": "",
							"type": "uint256"
						}
					],
					"stateMutability": "pure",
					"type": "function"
				}
			],
			"devdoc": {
				"kind": "dev",
				"methods": {},
				"version": 1
			},
			"evm": {
				"assembly": "    /* \"ERC721/Papeleta.sol\":60:664  contract Papeleta{\r... */\n  mstore(0x40, 0x80)\n    /* \"ERC721/Papeleta.sol\":84:276  uint256[] private _ciVotantes = [\r... */\n  mload(0x40)\n  dup1\n  0x0120\n  add\n  0x40\n  mstore\n  dup1\n    /* \"ERC721/Papeleta.sol\":127:133  487621 */\n  0x0770c5\n    /* \"ERC721/Papeleta.sol\":84:276  uint256[] private _ciVotantes = [\r... */\n  0xffffff\n  and\n  dup2\n  mstore\n  0x20\n  add\n    /* \"ERC721/Papeleta.sol\":144:150  876572 */\n  0x0d601c\n    /* \"ERC721/Papeleta.sol\":84:276  uint256[] private _ciVotantes = [\r... */\n  0xffffff\n  and\n  dup2\n  mstore\n  0x20\n  add\n    /* \"ERC721/Papeleta.sol\":161:167  651234 */\n  0x09efe2\n    /* \"ERC721/Papeleta.sol\":84:276  uint256[] private _ciVotantes = [\r... */\n  0xffffff\n  and\n  dup2\n  mstore\n  0x20\n  add\n    /* \"ERC721/Papeleta.sol\":178:184  133125 */\n  0x020805\n    /* \"ERC721/Papeleta.sol\":84:276  uint256[] private _ciVotantes = [\r... */\n  0xffffff\n  and\n  dup2\n  mstore\n  0x20\n  add\n    /* \"ERC721/Papeleta.sol\":195:201  796567 */\n  0x0c2797\n    /* \"ERC721/Papeleta.sol\":84:276  uint256[] private _ciVotantes = [\r... */\n  0xffffff\n  and\n  dup2\n  mstore\n  0x20\n  add\n    /* \"ERC721/Papeleta.sol\":212:218  705378 */\n  0x0ac362\n    /* \"ERC721/Papeleta.sol\":84:276  uint256[] private _ciVotantes = [\r... */\n  0xffffff\n  and\n  dup2\n  mstore\n  0x20\n  add\n    /* \"ERC721/Papeleta.sol\":229:235  772134 */\n  0x0bc826\n    /* \"ERC721/Papeleta.sol\":84:276  uint256[] private _ciVotantes = [\r... */\n  0xffffff\n  and\n  dup2\n  mstore\n  0x20\n  add\n    /* \"ERC721/Papeleta.sol\":246:252  285423 */\n  0x045aef\n    /* \"ERC721/Papeleta.sol\":84:276  uint256[] private _ciVotantes = [\r... */\n  0xffffff\n  and\n  dup2\n  mstore\n  0x20\n  add\n    /* \"ERC721/Papeleta.sol\":263:269  652472 */\n  0x09f4b8\n    /* \"ERC721/Papeleta.sol\":84:276  uint256[] private _ciVotantes = [\r... */\n  0xffffff\n  and\n  dup2\n  mstore\n  pop\n  0x00\n  swap1\n  0x09\n  tag_1\n  swap3\n  swap2\n  swap1\n  tag_2\n  jump\t// in\ntag_1:\n  pop\n    /* \"ERC721/Papeleta.sol\":60:664  contract Papeleta{\r... */\n  callvalue\n  dup1\n  iszero\n  tag_3\n  jumpi\n  0x00\n  dup1\n  revert\ntag_3:\n  pop\n  jump(tag_4)\ntag_2:\n  dup3\n  dup1\n  sload\n  dup3\n  dup3\n  sstore\n  swap1\n  0x00\n  mstore\n  keccak256(0x00, 0x20)\n  swap1\n  dup2\n  add\n  swap3\n  dup3\n  iszero\n  tag_5\n  jumpi\n  swap2\n  0x20\n  mul\n  dup3\n  add\ntag_6:\n  dup3\n  dup2\n  gt\n  iszero\n  tag_7\n  jumpi\n  dup3\n  mload\n  dup3\n  swap1\n  0xffffff\n  and\n  swap1\n  sstore\n  swap2\n  0x20\n  add\n  swap2\n  swap1\n  0x01\n  add\n  swap1\n  jump(tag_6)\ntag_7:\ntag_5:\n  pop\n  swap1\n  pop\n  tag_8\n  swap2\n  swap1\n  tag_9\n  jump\t// in\ntag_8:\n  pop\n  swap1\n  jump\t// out\ntag_9:\ntag_10:\n  dup1\n  dup3\n  gt\n  iszero\n  tag_11\n  jumpi\n  0x00\n  dup2\n  0x00\n  swap1\n  sstore\n  pop\n  0x01\n  add\n  jump(tag_10)\ntag_11:\n  pop\n  swap1\n  jump\t// out\ntag_4:\n  dataSize(sub_0)\n  dup1\n  dataOffset(sub_0)\n  0x00\n  codecopy\n  0x00\n  return\nstop\n\nsub_0: assembly {\n        /* \"ERC721/Papeleta.sol\":60:664  contract Papeleta{\r... */\n      mstore(0x40, 0x80)\n      callvalue\n      dup1\n      iszero\n      tag_1\n      jumpi\n      0x00\n      dup1\n      revert\n    tag_1:\n      pop\n      jumpi(tag_2, lt(calldatasize, 0x04))\n      shr(0xe0, calldataload(0x00))\n      dup1\n      0x73001197\n      eq\n      tag_3\n      jumpi\n    tag_2:\n      0x00\n      dup1\n      revert\n        /* \"ERC721/Papeleta.sol\":285:661  function cifradoVotante(uint256 _tokenID, address _minter, uint256 _ci) \r... */\n    tag_3:\n      tag_4\n      0x04\n      dup1\n      calldatasize\n      sub\n      dup2\n      add\n      swap1\n      tag_5\n      swap2\n      swap1\n      tag_6\n      jump\t// in\n    tag_5:\n      tag_7\n      jump\t// in\n    tag_4:\n      mload(0x40)\n      tag_8\n      swap2\n      swap1\n      tag_9\n      jump\t// in\n    tag_8:\n      mload(0x40)\n      dup1\n      swap2\n      sub\n      swap1\n      return\n    tag_7:\n        /* \"ERC721/Papeleta.sol\":407:414  uint256 */\n      0x00\n        /* \"ERC721/Papeleta.sol\":426:448  uint256 combinedParams */\n      dup1\n        /* \"ERC721/Papeleta.sol\":481:484  _ci */\n      dup3\n        /* \"ERC721/Papeleta.sol\":470:477  _minter */\n      dup5\n        /* \"ERC721/Papeleta.sol\":451:478  _tokenID + uint160(_minter) */\n      0xffffffffffffffffffffffffffffffffffffffff\n      and\n        /* \"ERC721/Papeleta.sol\":451:459  _tokenID */\n      dup7\n        /* \"ERC721/Papeleta.sol\":451:478  _tokenID + uint160(_minter) */\n      tag_11\n      swap2\n      swap1\n      tag_12\n      jump\t// in\n    tag_11:\n        /* \"ERC721/Papeleta.sol\":451:484  _tokenID + uint160(_minter) + _ci */\n      tag_13\n      swap2\n      swap1\n      tag_12\n      jump\t// in\n    tag_13:\n        /* \"ERC721/Papeleta.sol\":426:484  uint256 combinedParams = _tokenID + uint160(_minter) + _ci */\n      swap1\n      pop\n        /* \"ERC721/Papeleta.sol\":495:521  bytes memory encodedParams */\n      0x00\n        /* \"ERC721/Papeleta.sol\":541:555  combinedParams */\n      dup2\n        /* \"ERC721/Papeleta.sol\":524:556  abi.encodePacked(combinedParams) */\n      add(0x20, mload(0x40))\n      tag_14\n      swap2\n      swap1\n      tag_15\n      jump\t// in\n    tag_14:\n      mload(0x40)\n      0x20\n      dup2\n      dup4\n      sub\n      sub\n      dup2\n      mstore\n      swap1\n      0x40\n      mstore\n        /* \"ERC721/Papeleta.sol\":495:556  bytes memory encodedParams = abi.encodePacked(combinedParams) */\n      swap1\n      pop\n        /* \"ERC721/Papeleta.sol\":567:587  bytes32 hashedParams */\n      0x00\n        /* \"ERC721/Papeleta.sol\":600:613  encodedParams */\n      dup2\n        /* \"ERC721/Papeleta.sol\":590:614  keccak256(encodedParams) */\n      dup1\n      mload\n      swap1\n      0x20\n      add\n      keccak256\n        /* \"ERC721/Papeleta.sol\":567:614  bytes32 hashedParams = keccak256(encodedParams) */\n      swap1\n      pop\n        /* \"ERC721/Papeleta.sol\":640:652  hashedParams */\n      dup1\n        /* \"ERC721/Papeleta.sol\":632:653  uint256(hashedParams) */\n      0x00\n      shr\n        /* \"ERC721/Papeleta.sol\":625:653  return uint256(hashedParams) */\n      swap4\n      pop\n      pop\n      pop\n      pop\n        /* \"ERC721/Papeleta.sol\":285:661  function cifradoVotante(uint256 _tokenID, address _minter, uint256 _ci) \r... */\n      swap4\n      swap3\n      pop\n      pop\n      pop\n      jump\t// out\n        /* \"#utility.yul\":7:146   */\n    tag_17:\n        /* \"#utility.yul\":53:58   */\n      0x00\n        /* \"#utility.yul\":91:97   */\n      dup2\n        /* \"#utility.yul\":78:98   */\n      calldataload\n        /* \"#utility.yul\":69:98   */\n      swap1\n      pop\n        /* \"#utility.yul\":107:140   */\n      tag_19\n        /* \"#utility.yul\":134:139   */\n      dup2\n        /* \"#utility.yul\":107:140   */\n      tag_20\n      jump\t// in\n    tag_19:\n        /* \"#utility.yul\":7:146   */\n      swap3\n      swap2\n      pop\n      pop\n      jump\t// out\n        /* \"#utility.yul\":152:291   */\n    tag_21:\n        /* \"#utility.yul\":198:203   */\n      0x00\n        /* \"#utility.yul\":236:242   */\n      dup2\n        /* \"#utility.yul\":223:243   */\n      calldataload\n        /* \"#utility.yul\":214:243   */\n      swap1\n      pop\n        /* \"#utility.yul\":252:285   */\n      tag_23\n        /* \"#utility.yul\":279:284   */\n      dup2\n        /* \"#utility.yul\":252:285   */\n      tag_24\n      jump\t// in\n    tag_23:\n        /* \"#utility.yul\":152:291   */\n      swap3\n      swap2\n      pop\n      pop\n      jump\t// out\n        /* \"#utility.yul\":297:916   */\n    tag_6:\n        /* \"#utility.yul\":374:380   */\n      0x00\n        /* \"#utility.yul\":382:388   */\n      dup1\n        /* \"#utility.yul\":390:396   */\n      0x00\n        /* \"#utility.yul\":439:441   */\n      0x60\n        /* \"#utility.yul\":427:436   */\n      dup5\n        /* \"#utility.yul\":418:425   */\n      dup7\n        /* \"#utility.yul\":414:437   */\n      sub\n        /* \"#utility.yul\":410:442   */\n      slt\n        /* \"#utility.yul\":407:526   */\n      iszero\n      tag_26\n      jumpi\n        /* \"#utility.yul\":445:524   */\n      tag_27\n      tag_28\n      jump\t// in\n    tag_27:\n        /* \"#utility.yul\":407:526   */\n    tag_26:\n        /* \"#utility.yul\":565:566   */\n      0x00\n        /* \"#utility.yul\":590:643   */\n      tag_29\n        /* \"#utility.yul\":635:642   */\n      dup7\n        /* \"#utility.yul\":626:632   */\n      dup3\n        /* \"#utility.yul\":615:624   */\n      dup8\n        /* \"#utility.yul\":611:633   */\n      add\n        /* \"#utility.yul\":590:643   */\n      tag_21\n      jump\t// in\n    tag_29:\n        /* \"#utility.yul\":580:643   */\n      swap4\n      pop\n        /* \"#utility.yul\":536:653   */\n      pop\n        /* \"#utility.yul\":692:694   */\n      0x20\n        /* \"#utility.yul\":718:771   */\n      tag_30\n        /* \"#utility.yul\":763:770   */\n      dup7\n        /* \"#utility.yul\":754:760   */\n      dup3\n        /* \"#utility.yul\":743:752   */\n      dup8\n        /* \"#utility.yul\":739:761   */\n      add\n        /* \"#utility.yul\":718:771   */\n      tag_17\n      jump\t// in\n    tag_30:\n        /* \"#utility.yul\":708:771   */\n      swap3\n      pop\n        /* \"#utility.yul\":663:781   */\n      pop\n        /* \"#utility.yul\":820:822   */\n      0x40\n        /* \"#utility.yul\":846:899   */\n      tag_31\n        /* \"#utility.yul\":891:898   */\n      dup7\n        /* \"#utility.yul\":882:888   */\n      dup3\n        /* \"#utility.yul\":871:880   */\n      dup8\n        /* \"#utility.yul\":867:889   */\n      add\n        /* \"#utility.yul\":846:899   */\n      tag_21\n      jump\t// in\n    tag_31:\n        /* \"#utility.yul\":836:899   */\n      swap2\n      pop\n        /* \"#utility.yul\":791:909   */\n      pop\n        /* \"#utility.yul\":297:916   */\n      swap3\n      pop\n      swap3\n      pop\n      swap3\n      jump\t// out\n        /* \"#utility.yul\":922:1040   */\n    tag_32:\n        /* \"#utility.yul\":1009:1033   */\n      tag_34\n        /* \"#utility.yul\":1027:1032   */\n      dup2\n        /* \"#utility.yul\":1009:1033   */\n      tag_35\n      jump\t// in\n    tag_34:\n        /* \"#utility.yul\":1004:1007   */\n      dup3\n        /* \"#utility.yul\":997:1034   */\n      mstore\n        /* \"#utility.yul\":922:1040   */\n      pop\n      pop\n      jump\t// out\n        /* \"#utility.yul\":1046:1203   */\n    tag_36:\n        /* \"#utility.yul\":1151:1196   */\n      tag_38\n        /* \"#utility.yul\":1171:1195   */\n      tag_39\n        /* \"#utility.yul\":1189:1194   */\n      dup3\n        /* \"#utility.yul\":1171:1195   */\n      tag_35\n      jump\t// in\n    tag_39:\n        /* \"#utility.yul\":1151:1196   */\n      tag_40\n      jump\t// in\n    tag_38:\n        /* \"#utility.yul\":1146:1149   */\n      dup3\n        /* \"#utility.yul\":1139:1197   */\n      mstore\n        /* \"#utility.yul\":1046:1203   */\n      pop\n      pop\n      jump\t// out\n        /* \"#utility.yul\":1209:1465   */\n    tag_15:\n        /* \"#utility.yul\":1321:1324   */\n      0x00\n        /* \"#utility.yul\":1336:1411   */\n      tag_42\n        /* \"#utility.yul\":1407:1410   */\n      dup3\n        /* \"#utility.yul\":1398:1404   */\n      dup5\n        /* \"#utility.yul\":1336:1411   */\n      tag_36\n      jump\t// in\n    tag_42:\n        /* \"#utility.yul\":1436:1438   */\n      0x20\n        /* \"#utility.yul\":1431:1434   */\n      dup3\n        /* \"#utility.yul\":1427:1439   */\n      add\n        /* \"#utility.yul\":1420:1439   */\n      swap2\n      pop\n        /* \"#utility.yul\":1456:1459   */\n      dup2\n        /* \"#utility.yul\":1449:1459   */\n      swap1\n      pop\n        /* \"#utility.yul\":1209:1465   */\n      swap3\n      swap2\n      pop\n      pop\n      jump\t// out\n        /* \"#utility.yul\":1471:1693   */\n    tag_9:\n        /* \"#utility.yul\":1564:1568   */\n      0x00\n        /* \"#utility.yul\":1602:1604   */\n      0x20\n        /* \"#utility.yul\":1591:1600   */\n      dup3\n        /* \"#utility.yul\":1587:1605   */\n      add\n        /* \"#utility.yul\":1579:1605   */\n      swap1\n      pop\n        /* \"#utility.yul\":1615:1686   */\n      tag_44\n        /* \"#utility.yul\":1683:1684   */\n      0x00\n        /* \"#utility.yul\":1672:1681   */\n      dup4\n        /* \"#utility.yul\":1668:1685   */\n      add\n        /* \"#utility.yul\":1659:1665   */\n      dup5\n        /* \"#utility.yul\":1615:1686   */\n      tag_32\n      jump\t// in\n    tag_44:\n        /* \"#utility.yul\":1471:1693   */\n      swap3\n      swap2\n      pop\n      pop\n      jump\t// out\n        /* \"#utility.yul\":1780:2085   */\n    tag_12:\n        /* \"#utility.yul\":1820:1823   */\n      0x00\n        /* \"#utility.yul\":1839:1859   */\n      tag_48\n        /* \"#utility.yul\":1857:1858   */\n      dup3\n        /* \"#utility.yul\":1839:1859   */\n      tag_35\n      jump\t// in\n    tag_48:\n        /* \"#utility.yul\":1834:1859   */\n      swap2\n      pop\n        /* \"#utility.yul\":1873:1893   */\n      tag_49\n        /* \"#utility.yul\":1891:1892   */\n      dup4\n        /* \"#utility.yul\":1873:1893   */\n      tag_35\n      jump\t// in\n    tag_49:\n        /* \"#utility.yul\":1868:1893   */\n      swap3\n      pop\n        /* \"#utility.yul\":2027:2028   */\n      dup3\n        /* \"#utility.yul\":1959:2025   */\n      0xffffffffffffffffffffffffffffffffffffffffffffffffffffffffffffffff\n        /* \"#utility.yul\":1955:2029   */\n      sub\n        /* \"#utility.yul\":1952:1953   */\n      dup3\n        /* \"#utility.yul\":1949:2030   */\n      gt\n        /* \"#utility.yul\":1946:2053   */\n      iszero\n      tag_50\n      jumpi\n        /* \"#utility.yul\":2033:2051   */\n      tag_51\n      tag_52\n      jump\t// in\n    tag_51:\n        /* \"#utility.yul\":1946:2053   */\n    tag_50:\n        /* \"#utility.yul\":2077:2078   */\n      dup3\n        /* \"#utility.yul\":2074:2075   */\n      dup3\n        /* \"#utility.yul\":2070:2079   */\n      add\n        /* \"#utility.yul\":2063:2079   */\n      swap1\n      pop\n        /* \"#utility.yul\":1780:2085   */\n      swap3\n      swap2\n      pop\n      pop\n      jump\t// out\n        /* \"#utility.yul\":2091:2187   */\n    tag_53:\n        /* \"#utility.yul\":2128:2135   */\n      0x00\n        /* \"#utility.yul\":2157:2181   */\n      tag_55\n        /* \"#utility.yul\":2175:2180   */\n      dup3\n        /* \"#utility.yul\":2157:2181   */\n      tag_56\n      jump\t// in\n    tag_55:\n        /* \"#utility.yul\":2146:2181   */\n      swap1\n      pop\n        /* \"#utility.yul\":2091:2187   */\n      swap2\n      swap1\n      pop\n      jump\t// out\n        /* \"#utility.yul\":2193:2319   */\n    tag_56:\n        /* \"#utility.yul\":2230:2237   */\n      0x00\n        /* \"#utility.yul\":2270:2312   */\n      0xffffffffffffffffffffffffffffffffffffffff\n        /* \"#utility.yul\":2263:2268   */\n      dup3\n        /* \"#utility.yul\":2259:2313   */\n      and\n        /* \"#utility.yul\":2248:2313   */\n      swap1\n      pop\n        /* \"#utility.yul\":2193:2319   */\n      swap2\n      swap1\n      pop\n      jump\t// out\n        /* \"#utility.yul\":2325:2402   */\n    tag_35:\n        /* \"#utility.yul\":2362:2369   */\n      0x00\n        /* \"#utility.yul\":2391:2396   */\n      dup2\n        /* \"#utility.yul\":2380:2396   */\n      swap1\n      pop\n        /* \"#utility.yul\":2325:2402   */\n      swap2\n      swap1\n      pop\n      jump\t// out\n        /* \"#utility.yul\":2408:2487   */\n    tag_40:\n        /* \"#utility.yul\":2447:2454   */\n      0x00\n        /* \"#utility.yul\":2476:2481   */\n      dup2\n        /* \"#utility.yul\":2465:2481   */\n      swap1\n      pop\n        /* \"#utility.yul\":2408:2487   */\n      swap2\n      swap1\n      pop\n      jump\t// out\n        /* \"#utility.yul\":2493:2673   */\n    tag_52:\n        /* \"#utility.yul\":2541:2618   */\n      0x4e487b7100000000000000000000000000000000000000000000000000000000\n        /* \"#utility.yul\":2538:2539   */\n      0x00\n        /* \"#utility.yul\":2531:2619   */\n      mstore\n        /* \"#utility.yul\":2638:2642   */\n      0x11\n        /* \"#utility.yul\":2635:2636   */\n      0x04\n        /* \"#utility.yul\":2628:2643   */\n      mstore\n        /* \"#utility.yul\":2662:2666   */\n      0x24\n        /* \"#utility.yul\":2659:2660   */\n      0x00\n        /* \"#utility.yul\":2652:2667   */\n      revert\n        /* \"#utility.yul\":2802:2919   */\n    tag_28:\n        /* \"#utility.yul\":2911:2912   */\n      0x00\n        /* \"#utility.yul\":2908:2909   */\n      dup1\n        /* \"#utility.yul\":2901:2913   */\n      revert\n        /* \"#utility.yul\":2925:3047   */\n    tag_20:\n        /* \"#utility.yul\":2998:3022   */\n      tag_65\n        /* \"#utility.yul\":3016:3021   */\n      dup2\n        /* \"#utility.yul\":2998:3022   */\n      tag_53\n      jump\t// in\n    tag_65:\n        /* \"#utility.yul\":2991:2996   */\n      dup2\n        /* \"#utility.yul\":2988:3023   */\n      eq\n        /* \"#utility.yul\":2978:3041   */\n      tag_66\n      jumpi\n        /* \"#utility.yul\":3037:3038   */\n      0x00\n        /* \"#utility.yul\":3034:3035   */\n      dup1\n        /* \"#utility.yul\":3027:3039   */\n      revert\n        /* \"#utility.yul\":2978:3041   */\n    tag_66:\n        /* \"#utility.yul\":2925:3047   */\n      pop\n      jump\t// out\n        /* \"#utility.yul\":3053:3175   */\n    tag_24:\n        /* \"#utility.yul\":3126:3150   */\n      tag_68\n        /* \"#utility.yul\":3144:3149   */\n      dup2\n        /* \"#utility.yul\":3126:3150   */\n      tag_35\n      jump\t// in\n    tag_68:\n        /* \"#utility.yul\":3119:3124   */\n      dup2\n        /* \"#utility.yul\":3116:3151   */\n      eq\n        /* \"#utility.yul\":3106:3169   */\n      tag_69\n      jumpi\n        /* \"#utility.yul\":3165:3166   */\n      0x00\n        /* \"#utility.yul\":3162:3163   */\n      dup1\n        /* \"#utility.yul\":3155:3167   */\n      revert\n        /* \"#utility.yul\":3106:3169   */\n    tag_69:\n        /* \"#utility.yul\":3053:3175   */\n      pop\n      jump\t// out\n\n    auxdata: 0xa26469706673582212200335f8ae9fe9851dc0210f31cc8dbc205f71b4a0c51e46c1f1ec5fddf91767ec64736f6c63430008070033\n}\n",
				"bytecode": {
					"linkReferences": {},
					"object": "6080604052604051806101200160405280620770c562ffffff168152602001620d601c62ffffff1681526020016209efe262ffffff1681526020016202080562ffffff168152602001620c279762ffffff168152602001620ac36262ffffff168152602001620bc82662ffffff16815260200162045aef62ffffff1681526020016209f4b862ffffff16815250600090600961009c9291906100af565b503480156100a957600080fd5b50610120565b8280548282559060005260206000209081019282156100f2579160200282015b828111156100f1578251829062ffffff169055916020019190600101906100cf565b5b5090506100ff9190610103565b5090565b5b8082111561011c576000816000905550600101610104565b5090565b6102df8061012f6000396000f3fe608060405234801561001057600080fd5b506004361061002b5760003560e01c80637300119714610030575b600080fd5b61004a600480360381019061004591906100fc565b610060565b6040516100579190610190565b60405180910390f35b600080828473ffffffffffffffffffffffffffffffffffffffff168661008691906101ab565b61009091906101ab565b90506000816040516020016100a59190610175565b60405160208183030381529060405290506000818051906020012090508060001c93505050509392505050565b6000813590506100e18161027b565b92915050565b6000813590506100f681610292565b92915050565b60008060006060848603121561011557610114610276565b5b6000610123868287016100e7565b9350506020610134868287016100d2565b9250506040610145868287016100e7565b9150509250925092565b61015881610233565b82525050565b61016f61016a82610233565b61023d565b82525050565b6000610181828461015e565b60208201915081905092915050565b60006020820190506101a5600083018461014f565b92915050565b60006101b682610233565b91506101c183610233565b9250827fffffffffffffffffffffffffffffffffffffffffffffffffffffffffffffffff038211156101f6576101f5610247565b5b828201905092915050565b600061020c82610213565b9050919050565b600073ffffffffffffffffffffffffffffffffffffffff82169050919050565b6000819050919050565b6000819050919050565b7f4e487b7100000000000000000000000000000000000000000000000000000000600052601160045260246000fd5b600080fd5b61028481610201565b811461028f57600080fd5b50565b61029b81610233565b81146102a657600080fd5b5056fea26469706673582212200335f8ae9fe9851dc0210f31cc8dbc205f71b4a0c51e46c1f1ec5fddf91767ec64736f6c63430008070033",
					"opcodes": "PUSH1 0x80 PUSH1 0x40 MSTORE PUSH1 0x40 MLOAD DUP1 PUSH2 0x120 ADD PUSH1 0x40 MSTORE DUP1 PUSH3 0x770C5 PUSH3 0xFFFFFF AND DUP2 MSTORE PUSH1 0x20 ADD PUSH3 0xD601C PUSH3 0xFFFFFF AND DUP2 MSTORE PUSH1 0x20 ADD PUSH3 0x9EFE2 PUSH3 0xFFFFFF AND DUP2 MSTORE PUSH1 0x20 ADD PUSH3 0x20805 PUSH3 0xFFFFFF AND DUP2 MSTORE PUSH1 0x20 ADD PUSH3 0xC2797 PUSH3 0xFFFFFF AND DUP2 MSTORE PUSH1 0x20 ADD PUSH3 0xAC362 PUSH3 0xFFFFFF AND DUP2 MSTORE PUSH1 0x20 ADD PUSH3 0xBC826 PUSH3 0xFFFFFF AND DUP2 MSTORE PUSH1 0x20 ADD PUSH3 0x45AEF PUSH3 0xFFFFFF AND DUP2 MSTORE PUSH1 0x20 ADD PUSH3 0x9F4B8 PUSH3 0xFFFFFF AND DUP2 MSTORE POP PUSH1 0x0 SWAP1 PUSH1 0x9 PUSH2 0x9C SWAP3 SWAP2 SWAP1 PUSH2 0xAF JUMP JUMPDEST POP CALLVALUE DUP1 ISZERO PUSH2 0xA9 JUMPI PUSH1 0x0 DUP1 REVERT JUMPDEST POP PUSH2 0x120 JUMP JUMPDEST DUP3 DUP1 SLOAD DUP3 DUP3 SSTORE SWAP1 PUSH1 0x0 MSTORE PUSH1 0x20 PUSH1 0x0 KECCAK256 SWAP1 DUP2 ADD SWAP3 DUP3 ISZERO PUSH2 0xF2 JUMPI SWAP2 PUSH1 0x20 MUL DUP3 ADD JUMPDEST DUP3 DUP2 GT ISZERO PUSH2 0xF1 JUMPI DUP3 MLOAD DUP3 SWAP1 PUSH3 0xFFFFFF AND SWAP1 SSTORE SWAP2 PUSH1 0x20 ADD SWAP2 SWAP1 PUSH1 0x1 ADD SWAP1 PUSH2 0xCF JUMP JUMPDEST JUMPDEST POP SWAP1 POP PUSH2 0xFF SWAP2 SWAP1 PUSH2 0x103 JUMP JUMPDEST POP SWAP1 JUMP JUMPDEST JUMPDEST DUP1 DUP3 GT ISZERO PUSH2 0x11C JUMPI PUSH1 0x0 DUP2 PUSH1 0x0 SWAP1 SSTORE POP PUSH1 0x1 ADD PUSH2 0x104 JUMP JUMPDEST POP SWAP1 JUMP JUMPDEST PUSH2 0x2DF DUP1 PUSH2 0x12F PUSH1 0x0 CODECOPY PUSH1 0x0 RETURN INVALID PUSH1 0x80 PUSH1 0x40 MSTORE CALLVALUE DUP1 ISZERO PUSH2 0x10 JUMPI PUSH1 0x0 DUP1 REVERT JUMPDEST POP PUSH1 0x4 CALLDATASIZE LT PUSH2 0x2B JUMPI PUSH1 0x0 CALLDATALOAD PUSH1 0xE0 SHR DUP1 PUSH4 0x73001197 EQ PUSH2 0x30 JUMPI JUMPDEST PUSH1 0x0 DUP1 REVERT JUMPDEST PUSH2 0x4A PUSH1 0x4 DUP1 CALLDATASIZE SUB DUP2 ADD SWAP1 PUSH2 0x45 SWAP2 SWAP1 PUSH2 0xFC JUMP JUMPDEST PUSH2 0x60 JUMP JUMPDEST PUSH1 0x40 MLOAD PUSH2 0x57 SWAP2 SWAP1 PUSH2 0x190 JUMP JUMPDEST PUSH1 0x40 MLOAD DUP1 SWAP2 SUB SWAP1 RETURN JUMPDEST PUSH1 0x0 DUP1 DUP3 DUP5 PUSH20 0xFFFFFFFFFFFFFFFFFFFFFFFFFFFFFFFFFFFFFFFF AND DUP7 PUSH2 0x86 SWAP2 SWAP1 PUSH2 0x1AB JUMP JUMPDEST PUSH2 0x90 SWAP2 SWAP1 PUSH2 0x1AB JUMP JUMPDEST SWAP1 POP PUSH1 0x0 DUP2 PUSH1 0x40 MLOAD PUSH1 0x20 ADD PUSH2 0xA5 SWAP2 SWAP1 PUSH2 0x175 JUMP JUMPDEST PUSH1 0x40 MLOAD PUSH1 0x20 DUP2 DUP4 SUB SUB DUP2 MSTORE SWAP1 PUSH1 0x40 MSTORE SWAP1 POP PUSH1 0x0 DUP2 DUP1 MLOAD SWAP1 PUSH1 0x20 ADD KECCAK256 SWAP1 POP DUP1 PUSH1 0x0 SHR SWAP4 POP POP POP POP SWAP4 SWAP3 POP POP POP JUMP JUMPDEST PUSH1 0x0 DUP2 CALLDATALOAD SWAP1 POP PUSH2 0xE1 DUP2 PUSH2 0x27B JUMP JUMPDEST SWAP3 SWAP2 POP POP JUMP JUMPDEST PUSH1 0x0 DUP2 CALLDATALOAD SWAP1 POP PUSH2 0xF6 DUP2 PUSH2 0x292 JUMP JUMPDEST SWAP3 SWAP2 POP POP JUMP JUMPDEST PUSH1 0x0 DUP1 PUSH1 0x0 PUSH1 0x60 DUP5 DUP7 SUB SLT ISZERO PUSH2 0x115 JUMPI PUSH2 0x114 PUSH2 0x276 JUMP JUMPDEST JUMPDEST PUSH1 0x0 PUSH2 0x123 DUP7 DUP3 DUP8 ADD PUSH2 0xE7 JUMP JUMPDEST SWAP4 POP POP PUSH1 0x20 PUSH2 0x134 DUP7 DUP3 DUP8 ADD PUSH2 0xD2 JUMP JUMPDEST SWAP3 POP POP PUSH1 0x40 PUSH2 0x145 DUP7 DUP3 DUP8 ADD PUSH2 0xE7 JUMP JUMPDEST SWAP2 POP POP SWAP3 POP SWAP3 POP SWAP3 JUMP JUMPDEST PUSH2 0x158 DUP2 PUSH2 0x233 JUMP JUMPDEST DUP3 MSTORE POP POP JUMP JUMPDEST PUSH2 0x16F PUSH2 0x16A DUP3 PUSH2 0x233 JUMP JUMPDEST PUSH2 0x23D JUMP JUMPDEST DUP3 MSTORE POP POP JUMP JUMPDEST PUSH1 0x0 PUSH2 0x181 DUP3 DUP5 PUSH2 0x15E JUMP JUMPDEST PUSH1 0x20 DUP3 ADD SWAP2 POP DUP2 SWAP1 POP SWAP3 SWAP2 POP POP JUMP JUMPDEST PUSH1 0x0 PUSH1 0x20 DUP3 ADD SWAP1 POP PUSH2 0x1A5 PUSH1 0x0 DUP4 ADD DUP5 PUSH2 0x14F JUMP JUMPDEST SWAP3 SWAP2 POP POP JUMP JUMPDEST PUSH1 0x0 PUSH2 0x1B6 DUP3 PUSH2 0x233 JUMP JUMPDEST SWAP2 POP PUSH2 0x1C1 DUP4 PUSH2 0x233 JUMP JUMPDEST SWAP3 POP DUP3 PUSH32 0xFFFFFFFFFFFFFFFFFFFFFFFFFFFFFFFFFFFFFFFFFFFFFFFFFFFFFFFFFFFFFFFF SUB DUP3 GT ISZERO PUSH2 0x1F6 JUMPI PUSH2 0x1F5 PUSH2 0x247 JUMP JUMPDEST JUMPDEST DUP3 DUP3 ADD SWAP1 POP SWAP3 SWAP2 POP POP JUMP JUMPDEST PUSH1 0x0 PUSH2 0x20C DUP3 PUSH2 0x213 JUMP JUMPDEST SWAP1 POP SWAP2 SWAP1 POP JUMP JUMPDEST PUSH1 0x0 PUSH20 0xFFFFFFFFFFFFFFFFFFFFFFFFFFFFFFFFFFFFFFFF DUP3 AND SWAP1 POP SWAP2 SWAP1 POP JUMP JUMPDEST PUSH1 0x0 DUP2 SWAP1 POP SWAP2 SWAP1 POP JUMP JUMPDEST PUSH1 0x0 DUP2 SWAP1 POP SWAP2 SWAP1 POP JUMP JUMPDEST PUSH32 0x4E487B7100000000000000000000000000000000000000000000000000000000 PUSH1 0x0 MSTORE PUSH1 0x11 PUSH1 0x4 MSTORE PUSH1 0x24 PUSH1 0x0 REVERT JUMPDEST PUSH1 0x0 DUP1 REVERT JUMPDEST PUSH2 0x284 DUP2 PUSH2 0x201 JUMP JUMPDEST DUP2 EQ PUSH2 0x28F JUMPI PUSH1 0x0 DUP1 REVERT JUMPDEST POP JUMP JUMPDEST PUSH2 0x29B DUP2 PUSH2 0x233 JUMP JUMPDEST DUP2 EQ PUSH2 0x2A6 JUMPI PUSH1 0x0 DUP1 REVERT JUMPDEST POP JUMP INVALID LOG2 PUSH5 0x6970667358 0x22 SLT KECCAK256 SUB CALLDATALOAD 0xF8 0xAE SWAP16 0xE9 DUP6 SAR 0xC0 0x21 0xF BALANCE 0xCC DUP14 0xBC KECCAK256 0x5F PUSH18 0xB4A0C51E46C1F1EC5FDDF91767EC64736F6C PUSH4 0x43000807 STOP CALLER "
				},
				"gasEstimates": {
					"creation": {
						"codeDepositCost": "147000",
						"executionCost": "infinite",
						"totalCost": "infinite"
					},
					"external": {
						"cifradoVotante(uint256,address,uint256)": "infinite"
					}
				},
				"methodIdentifiers": {
					"cifradoVotante(uint256,address,uint256)": "73001197"
				}
			},
			"storageLayout": {
				"storage": [
					{
						"astId": 14,
						"contract": "ERC721/Papeleta.sol:Papeleta",
						"label": "_ciVotantes",
						"offset": 0,
						"slot": "0",
						"type": "t_array(t_uint256)dyn_storage"
					}
				],
				"types": {
					"t_array(t_uint256)dyn_storage": {
						"base": "t_uint256",
						"encoding": "dynamic_array",
						"label": "uint256[]",
						"numberOfBytes": "32"
					},
					"t_uint256": {
						"encoding": "inplace",
						"label": "uint256",
						"numberOfBytes": "32"
					}
				}
			},
			"userdoc": {
				"kind": "user",
				"methods": {},
				"version": 1
			}
		}
	}
}