{
	"data": {
		"bytecode": {
			"linkReferences": {},
			"object": "6080604052604051806101200160405280620770c562ffffff168152602001620d601c62ffffff1681526020016209efe262ffffff1681526020016202080562ffffff168152602001620c279762ffffff168152602001620ac36262ffffff168152602001620bc82662ffffff16815260200162045aef62ffffff1681526020016209f4b862ffffff16815250600090600961009c9291906100af565b503480156100a957600080fd5b50610120565b8280548282559060005260206000209081019282156100f2579160200282015b828111156100f1578251829062ffffff169055916020019190600101906100cf565b5b5090506100ff9190610103565b5090565b5b8082111561011c576000816000905550600101610104565b5090565b6102df8061012f6000396000f3fe608060405234801561001057600080fd5b506004361061002b5760003560e01c80637300119714610030575b600080fd5b61004a600480360381019061004591906100fc565b610060565b6040516100579190610190565b60405180910390f35b600080828473ffffffffffffffffffffffffffffffffffffffff168661008691906101ab565b61009091906101ab565b90506000816040516020016100a59190610175565b60405160208183030381529060405290506000818051906020012090508060001c93505050509392505050565b6000813590506100e18161027b565b92915050565b6000813590506100f681610292565b92915050565b60008060006060848603121561011557610114610276565b5b6000610123868287016100e7565b9350506020610134868287016100d2565b9250506040610145868287016100e7565b9150509250925092565b61015881610233565b82525050565b61016f61016a82610233565b61023d565b82525050565b6000610181828461015e565b60208201915081905092915050565b60006020820190506101a5600083018461014f565b92915050565b60006101b682610233565b91506101c183610233565b9250827fffffffffffffffffffffffffffffffffffffffffffffffffffffffffffffffff038211156101f6576101f5610247565b5b828201905092915050565b600061020c82610213565b9050919050565b600073ffffffffffffffffffffffffffffffffffffffff82169050919050565b6000819050919050565b6000819050919050565b7f4e487b7100000000000000000000000000000000000000000000000000000000600052601160045260246000fd5b600080fd5b61028481610201565b811461028f57600080fd5b50565b61029b81610233565b81146102a657600080fd5b5056fea2646970667358221220eb92a129090840cb1364466c9c4d6af93bed6230992c556d46a21d812d0895e564736f6c63430008070033",
			"opcodes": "PUSH1 0x80 PUSH1 0x40 MSTORE PUSH1 0x40 MLOAD DUP1 PUSH2 0x120 ADD PUSH1 0x40 MSTORE DUP1 PUSH3 0x770C5 PUSH3 0xFFFFFF AND DUP2 MSTORE PUSH1 0x20 ADD PUSH3 0xD601C PUSH3 0xFFFFFF AND DUP2 MSTORE PUSH1 0x20 ADD PUSH3 0x9EFE2 PUSH3 0xFFFFFF AND DUP2 MSTORE PUSH1 0x20 ADD PUSH3 0x20805 PUSH3 0xFFFFFF AND DUP2 MSTORE PUSH1 0x20 ADD PUSH3 0xC2797 PUSH3 0xFFFFFF AND DUP2 MSTORE PUSH1 0x20 ADD PUSH3 0xAC362 PUSH3 0xFFFFFF AND DUP2 MSTORE PUSH1 0x20 ADD PUSH3 0xBC826 PUSH3 0xFFFFFF AND DUP2 MSTORE PUSH1 0x20 ADD PUSH3 0x45AEF PUSH3 0xFFFFFF AND DUP2 MSTORE PUSH1 0x20 ADD PUSH3 0x9F4B8 PUSH3 0xFFFFFF AND DUP2 MSTORE POP PUSH1 0x0 SWAP1 PUSH1 0x9 PUSH2 0x9C SWAP3 SWAP2 SWAP1 PUSH2 0xAF JUMP JUMPDEST POP CALLVALUE DUP1 ISZERO PUSH2 0xA9 JUMPI PUSH1 0x0 DUP1 REVERT JUMPDEST POP PUSH2 0x120 JUMP JUMPDEST DUP3 DUP1 SLOAD DUP3 DUP3 SSTORE SWAP1 PUSH1 0x0 MSTORE PUSH1 0x20 PUSH1 0x0 KECCAK256 SWAP1 DUP2 ADD SWAP3 DUP3 ISZERO PUSH2 0xF2 JUMPI SWAP2 PUSH1 0x20 MUL DUP3 ADD JUMPDEST DUP3 DUP2 GT ISZERO PUSH2 0xF1 JUMPI DUP3 MLOAD DUP3 SWAP1 PUSH3 0xFFFFFF AND SWAP1 SSTORE SWAP2 PUSH1 0x20 ADD SWAP2 SWAP1 PUSH1 0x1 ADD SWAP1 PUSH2 0xCF JUMP JUMPDEST JUMPDEST POP SWAP1 POP PUSH2 0xFF SWAP2 SWAP1 PUSH2 0x103 JUMP JUMPDEST POP SWAP1 JUMP JUMPDEST JUMPDEST DUP1 DUP3 GT ISZERO PUSH2 0x11C JUMPI PUSH1 0x0 DUP2 PUSH1 0x0 SWAP1 SSTORE POP PUSH1 0x1 ADD PUSH2 0x104 JUMP JUMPDEST POP SWAP1 JUMP JUMPDEST PUSH2 0x2DF DUP1 PUSH2 0x12F PUSH1 0x0 CODECOPY PUSH1 0x0 RETURN INVALID PUSH1 0x80 PUSH1 0x40 MSTORE CALLVALUE DUP1 ISZERO PUSH2 0x10 JUMPI PUSH1 0x0 DUP1 REVERT JUMPDEST POP PUSH1 0x4 CALLDATASIZE LT PUSH2 0x2B JUMPI PUSH1 0x0 CALLDATALOAD PUSH1 0xE0 SHR DUP1 PUSH4 0x73001197 EQ PUSH2 0x30 JUMPI JUMPDEST PUSH1 0x0 DUP1 REVERT JUMPDEST PUSH2 0x4A PUSH1 0x4 DUP1 CALLDATASIZE SUB DUP2 ADD SWAP1 PUSH2 0x45 SWAP2 SWAP1 PUSH2 0xFC JUMP JUMPDEST PUSH2 0x60 JUMP JUMPDEST PUSH1 0x40 MLOAD PUSH2 0x57 SWAP2 SWAP1 PUSH2 0x190 JUMP JUMPDEST PUSH1 0x40 MLOAD DUP1 SWAP2 SUB SWAP1 RETURN JUMPDEST PUSH1 0x0 DUP1 DUP3 DUP5 PUSH20 0xFFFFFFFFFFFFFFFFFFFFFFFFFFFFFFFFFFFFFFFF AND DUP7 PUSH2 0x86 SWAP2 SWAP1 PUSH2 0x1AB JUMP JUMPDEST PUSH2 0x90 SWAP2 SWAP1 PUSH2 0x1AB JUMP JUMPDEST SWAP1 POP PUSH1 0x0 DUP2 PUSH1 0x40 MLOAD PUSH1 0x20 ADD PUSH2 0xA5 SWAP2 SWAP1 PUSH2 0x175 JUMP JUMPDEST PUSH1 0x40 MLOAD PUSH1 0x20 DUP2 DUP4 SUB SUB DUP2 MSTORE SWAP1 PUSH1 0x40 MSTORE SWAP1 POP PUSH1 0x0 DUP2 DUP1 MLOAD SWAP1 PUSH1 0x20 ADD KECCAK256 SWAP1 POP DUP1 PUSH1 0x0 SHR SWAP4 POP POP POP POP SWAP4 SWAP3 POP POP POP JUMP JUMPDEST PUSH1 0x0 DUP2 CALLDATALOAD SWAP1 POP PUSH2 0xE1 DUP2 PUSH2 0x27B JUMP JUMPDEST SWAP3 SWAP2 POP POP JUMP JUMPDEST PUSH1 0x0 DUP2 CALLDATALOAD SWAP1 POP PUSH2 0xF6 DUP2 PUSH2 0x292 JUMP JUMPDEST SWAP3 SWAP2 POP POP JUMP JUMPDEST PUSH1 0x0 DUP1 PUSH1 0x0 PUSH1 0x60 DUP5 DUP7 SUB SLT ISZERO PUSH2 0x115 JUMPI PUSH2 0x114 PUSH2 0x276 JUMP JUMPDEST JUMPDEST PUSH1 0x0 PUSH2 0x123 DUP7 DUP3 DUP8 ADD PUSH2 0xE7 JUMP JUMPDEST SWAP4 POP POP PUSH1 0x20 PUSH2 0x134 DUP7 DUP3 DUP8 ADD PUSH2 0xD2 JUMP JUMPDEST SWAP3 POP POP PUSH1 0x40 PUSH2 0x145 DUP7 DUP3 DUP8 ADD PUSH2 0xE7 JUMP JUMPDEST SWAP2 POP POP SWAP3 POP SWAP3 POP SWAP3 JUMP JUMPDEST PUSH2 0x158 DUP2 PUSH2 0x233 JUMP JUMPDEST DUP3 MSTORE POP POP JUMP JUMPDEST PUSH2 0x16F PUSH2 0x16A DUP3 PUSH2 0x233 JUMP JUMPDEST PUSH2 0x23D JUMP JUMPDEST DUP3 MSTORE POP POP JUMP JUMPDEST PUSH1 0x0 PUSH2 0x181 DUP3 DUP5 PUSH2 0x15E JUMP JUMPDEST PUSH1 0x20 DUP3 ADD SWAP2 POP DUP2 SWAP1 POP SWAP3 SWAP2 POP POP JUMP JUMPDEST PUSH1 0x0 PUSH1 0x20 DUP3 ADD SWAP1 POP PUSH2 0x1A5 PUSH1 0x0 DUP4 ADD DUP5 PUSH2 0x14F JUMP JUMPDEST SWAP3 SWAP2 POP POP JUMP JUMPDEST PUSH1 0x0 PUSH2 0x1B6 DUP3 PUSH2 0x233 JUMP JUMPDEST SWAP2 POP PUSH2 0x1C1 DUP4 PUSH2 0x233 JUMP JUMPDEST SWAP3 POP DUP3 PUSH32 0xFFFFFFFFFFFFFFFFFFFFFFFFFFFFFFFFFFFFFFFFFFFFFFFFFFFFFFFFFFFFFFFF SUB DUP3 GT ISZERO PUSH2 0x1F6 JUMPI PUSH2 0x1F5 PUSH2 0x247 JUMP JUMPDEST JUMPDEST DUP3 DUP3 ADD SWAP1 POP SWAP3 SWAP2 POP POP JUMP JUMPDEST PUSH1 0x0 PUSH2 0x20C DUP3 PUSH2 0x213 JUMP JUMPDEST SWAP1 POP SWAP2 SWAP1 POP JUMP JUMPDEST PUSH1 0x0 PUSH20 0xFFFFFFFFFFFFFFFFFFFFFFFFFFFFFFFFFFFFFFFF DUP3 AND SWAP1 POP SWAP2 SWAP1 POP JUMP JUMPDEST PUSH1 0x0 DUP2 SWAP1 POP SWAP2 SWAP1 POP JUMP JUMPDEST PUSH1 0x0 DUP2 SWAP1 POP SWAP2 SWAP1 POP JUMP JUMPDEST PUSH32 0x4E487B7100000000000000000000000000000000000000000000000000000000 PUSH1 0x0 MSTORE PUSH1 0x11 PUSH1 0x4 MSTORE PUSH1 0x24 PUSH1 0x0 REVERT JUMPDEST PUSH1 0x0 DUP1 REVERT JUMPDEST PUSH2 0x284 DUP2 PUSH2 0x201 JUMP JUMPDEST DUP2 EQ PUSH2 0x28F JUMPI PUSH1 0x0 DUP1 REVERT JUMPDEST POP JUMP JUMPDEST PUSH2 0x29B DUP2 PUSH2 0x233 JUMP JUMPDEST DUP2 EQ PUSH2 0x2A6 JUMPI PUSH1 0x0 DUP1 REVERT JUMPDEST POP JUMP INVALID LOG2 PUSH5 0x6970667358 0x22 SLT KECCAK256 0xEB SWAP3 LOG1 0x29 MULMOD ADDMOD BLOCKHASH 0xCB SGT PUSH5 0x466C9C4D6A 0xF9 EXTCODESIZE 0xED PUSH3 0x30992C SSTORE PUSH14 0x46A21D812D0895E564736F6C6343 STOP ADDMOD SMOD STOP CALLER "
		},
		"gasEstimates": {
			"creation": {
				"codeDepositCost": "147000",
				"executionCost": "infinite",
				"totalCost": "infinite"
			},
			"external": {
				"cifradoVotante(uint256,address,uint256)": "infinite"
			}
		},
		"methodIdentifiers": {
			"cifradoVotante(uint256,address,uint256)": "73001197"
		}
	},
	"abi": [
		{
			"inputs": [
				{
					"internalType": "uint256",
					"name": "_tokenID",
					"type": "uint256"
				},
				{
					"internalType": "address",
					"name": "_votante",
					"type": "address"
				},
				{
					"internalType": "uint256",
					"name": "_ci",
					"type": "uint256"
				}
			],
			"name": "cifradoVotante",
			"outputs": [
				{
					"internalType": "uint256",
					"name": "",
					"type": "uint256"
				}
			],
			"stateMutability": "pure",
			"type": "function"
		}
	]
}